:020000040800F2
:10000000001100204D01000833360008233100089C
:1000100031360008DD080008F9750008000000000E
:10002000000000000000000000000000F15F000878
:10003000030A000800000000113F0008F9610008F1
:1000400067010008670100084163000867010008B4
:1000500067010008670100086701000867010008E0
:1000600067010008670100086701000867010008D0
:1000700067010008670100086701000849090008D6
:1000800067010008670100086701000867010008B0
:1000900067010008670100086701000867010008A0
:1000A0006701000867010008670100086701000890
:1000B0006701000867010008670100086701000880
:1000C0006701000867010008670100086701000870
:1000D0006701000815710008670100086701000842
:1000E00067010008670100086D410008670100080A
:1000F0006701000867010008670100086701000840
:10010000670100086701000805560008670100083C
:10011000670100086701000867010008670100081F
:10012000670100086701000867010008670100080F
:100130006701000867010008DFF80CD000F05AFBE7
:10014000004800472176000800110020064880473B
:1001500006480047FEE7FEE7FEE7FEE7FEE7FEE7AC
:10016000FEE7FEE7FEE7FEE73D6300083901000811
:100170002DE9F05F0546002092469B4688460646DC
:10018000814640241BE0284641464746224600F06F
:100190008CFA53465A46C01A914110D3114618465C
:1001A000224600F073FA2D1A67EB01084F462246EB
:1001B0000120002100F06AFA17EB00094E41201ED1
:1001C000A4F10104DFDC484631462A464346BDE837
:1001D000F09F40EA01039B0703D009E008C9121F02
:1001E00008C0042AFAD203E011F8013B00F8013BF1
:1001F000521EF9D27047D2B201E000F8012B491E1D
:10020000FBD270470022F6E710B513460A460446B3
:100210001946FFF7F0FF204610BD421C10F8011BE5
:100220000029FBD1801A7047F0B480EA0102D40F94
:100230004200B2EB410F02D20246084611464A0084
:1002400042D0C30DDDB2C1F3C752AD1A202D35DA4D
:10025000C1F3160141F4000204B15242C5F1200677
:1002600002FA06F12A411044B3EBD05F23D0C4B1A7
:10027000012DA0EBC35009DCF0BC4FF0004202EAB4
:10028000C352DBB200F5000000F028BA400000F1D4
:10029000807000EBC350A0F1807040EAD17049003B
:1002A00009E0490841EAC071A0EBC35000F5000025
:1002B000400800EBC350F0BC00F007BA61420122D5
:1002C00002EB4101001BF6E7F0BC704781F00041F2
:1002D000AAE780F00040A7E780EA010210B502F02B
:1002E0000043400022D04A001FD0010E01EB1261F2
:1002F000C0F35600C2F3560240F4000042F400027C
:10030000A0FB022000047F39140400D0401C50EAF6
:10031000124001D44000491EC2B20C0604EBD010BA
:10032000401C4008802A02D003E0002010BD20F0CD
:100330000100002900DA0020184310BD30B480EA23
:10034000010202F0004530F0004221F0004013D0DD
:1003500090B1C30DD40DC2F31601C0F31600E41A18
:1003600041F4000140F400027D34914201D3641C49
:1003700000E04900002C02DA30BC002070474FF446
:1003800000000023914201D3891A034340084FEA39
:100390004101F7D151B1914202D14FF0004105E046
:1003A00002D24FF0010101E06FF0010103EBC450F4
:1003B000284430BC00F089B92DE9FE4F81EA0304DE
:1003C00004F0004421F0004100944FF0000B23F0B2
:1003D000004350EA01045ED052EA03045BD0C3F349
:1003E0000A54C1F30A552C44A4F2F3340194A0FB3F
:1003F0000254C1F3130141F48011C3F3130343F416
:10040000801301FB024400FB034E840A970A44EA6E
:10041000815447EA8357A4FB076802958D0A05FBC0
:1004200007854FEA932C04FB0C542705029D4FEAE5
:10043000065847EA1637B5EB08056EEB070C870E32
:10044000920E47EA811742EA8312A7FB0201B6EB3C
:100450000B0164EB00042B0D43EA0C335E1844EBF4
:100460001C50DA465146E7FB0201C5F313044FEA7C
:100470000B3343EA14534FEA0432019C43EA060368
:10048000A4F10C040294009CCDE900B400F063F9DF
:1004900003B0BDE8F08F00200146F9E72DE9F04DEB
:1004A00081EA030404F0004B21F0004514464FF0AC
:1004B000000A23F0004150EA050220D054EA01026C
:1004C0001DD0C5F30A570246C5F31303C1F3130049
:1004D000C1F30A5640F4801543F48013A7EB0608D5
:1004E000101BD64608F2FD3873EB050002D308F165
:1004F000010801E092185B41B8F1000F03DA002017
:100500000146BDE8F08D00204FF480110646844678
:100510000EE0171B73EB050705D3121B63EB0503F6
:1005200006434CEA010C49084FEA300092185B413F
:1005300050EA0107EDD152EA030012D082EA04002A
:1005400083EA0501084305D0101BAB4106D2012206
:10055000002306E000224FF0004302E06FF00102AA
:1005600053101AEB06004CEB085110EB0A0041EB5C
:100570000B01BDE8F04D00F0DFB8002801DBC0F151
:100580000040002901DBC1F10041814201D8012076
:10059000704700207047002801DBC0F100400029AF
:1005A00001DBC1F10041814201D2012070470020EE
:1005B0007047C10F80EAE0700844CA079623002103
:1005C00000F08CB896230022114600F087B80EB5D3
:1005D000C10F80EAE0700844CA07002140F23343AB
:1005E0008DE80E000A460B4600F0B5F803B000BDDA
:1005F00070B5C1F30A5201F000450024C1F31301A4
:1006000040F2FF3341F480119A4201DA002070BDBC
:1006100040F233439A42A2F2334203DC524200F0EA
:1006200044F800E090402C43F1D0404270BD00F00F
:10063000004230F000400AD0C10D01F56071C0F3F6
:10064000160042EA0151C2084007114370470020DA
:100650000146704701F0004330B421F0004150EAF8
:10066000010206D00A0DA2F56072C1F31301002A3F
:1006700002DC30BC00207047440F44EAC104C100D2
:10068000E01830BC00EBC25000F01FB8202A04DB99
:10069000203A00FA02F1002070479140C2F1200395
:1006A00020FA03F3194390407047202A04DB203AD4
:1006B00021FA02F00021704721FA02F3D040C2F182
:1006C000200291400843194670470029A8BF70478F
:1006D000401C490008BF20F00100704710B4B0FA78
:1006E00080FC00FA0CF050EA010404BF10BC704713
:1006F00049B1CCF1200421FA04F411FA0CF118BF2D
:10070000012121430843A3EB0C01CB1D4FEA0061FB
:100710004FEA102042BF002010BC704700EBC350CE
:1007200010440029A4BF10BC7047401C490008BFFA
:1007300020F0010010BC704710B5141E73F10004C6
:1007400008DA401C41F1000192185B411A4301D1C3
:1007500020F0010010BD2DE9F04D92469B4611B1ED
:10076000B1FA81F202E0B0FA80F220329046FFF74F
:100770008DFF04460F4640EA0A0041EA0B0153464A
:100780005A46084313D0114653EA010019D0C8F164
:1007900040025046FFF789FF05460E46504659462F
:1007A0004246FFF773FF084305D0012004E02046CE
:1007B0003946BDE8F08D0020054346EAE0762C433B
:1007C00037430A986305E40AA0EB08000022FD0AFB
:1007D00044EA47540A3002D500200146E9E7010502
:1007E00010196941DDE9084500196941BDE8F04D7E
:1007F000A2E70000064C074D06E0E06840F0010368
:1008000094E8070098471034AC42F6D3FFF798FC01
:10081000207D0008407D0008032819D8F8B50D4D4B
:10082000C600294C2A4F082105F58070F040C2B25D
:100830002046B84708481021F040C2B22046B847C9
:1008400025FA06F02021C2B22046B847BDE8F8409C
:10085000002070470000010100010100162100285E
:1008600008BF0F21084670470020704770B586B05A
:100870000024059402F0ACFD0320144ECDE90340A2
:100880000120114C02901020019001AD2046294614
:10089000B0472020294601902046B047082029462D
:1008A00001902046B0470A4D204620210022A8474B
:1008B000204610210022A847204608210022A847F0
:1008C000002006B070BD00BF00080048C50E00083B
:1008D0005D1000080120704701207047FEE700000E
:1008E000B0B586B000F09CF800F0A4F800F09CF8D9
:1008F000032001210490002002910390059002F052
:100900004DFD02F04BFD4FF480500E4C019001ADB7
:100910002046294600F0D6FA4FF4005029460190AF
:10092000204600F0CFFA20464FF48051002200F01C
:1009300095FB20464FF40051002200F08FFB06B0DB
:10094000B0BD00BF00040048014800F04BB900BF33
:100950007006002010B51049436C104C01F1640280
:1009600023F00303C2640268A24238BF04F57E711B
:100970001944142381646FF00701A24251FA82F1F5
:10098000B1FBF3F128BF0731012201F01F0102FA88
:1009900001F1016510BD00BF1C08024008040240BF
:1009A00010B5436807490124543003F07F0301F177
:1009B0004002013B01EB830103F0030304FA03F35C
:1009C0000EC010BD00090240F0B500F14C0670CE1B
:1009D000656016B1D0E91645656004688568D0E9A0
:1009E0001060012700F01C00102D07FA00F0706065
:1009F0000846636008BF1046A06008BF0A46E26070
:100A0000F0BD7047EFF3108072B6FEE7034801684F
:100A100002689142FBD1C843704700BF08280040DC
:100A2000064802F0B7BE00BF0448016821F0040187
:100A300001607047014802F034BE00BF042004E0AA
:100A400050B3B0B590F82510022927D1016800F104
:100A500040041CCC0D6803F01C0325F00E050D604E
:100A6000256825F4807525600C6824F001040C606D
:100A7000012101FA03F35360D0E913235360426D5F
:100A800032B1136823F480731360D0E916235360E6
:100A900080F82510002104E0012107E00421C16352
:100AA0000121002280F82420BDE8B04008467047AC
:100AB000B0B590F8251002292BD10168D0E9103289
:100AC000846C0D6825F00E050D600D6825F001059C
:100AD0000D60216821F48071216002F01C01012267
:100AE00002FA01F15960D0E913134B60416D31B145
:100AF0000B6823F480730B60D0E916134B60002160
:100B000080F8241080F82520826B2AB190470021BC
:100B100002E00421C16301210846B0BD60B1006854
:100B2000CB06026805D5C90254BF22F4801242F4F4
:100B3000801202600020704701207047F8B54FF026
:100B4000010C002846D00368254A7E4F04461968E8
:100B500002F5806521F00101196020490E1DB342A4
:100B60003CBF0025C4F2020538BF07F580671F446B
:100B70001420B7FBF0F08700C4E910570025B342FA
:100B80001D6038BF111D1C2202EA80000CFA00F023
:100B900008602046FFF7DEFE606804F148030ECBD4
:100BA000013803280D60536007D82046FFF7F8FE90
:100BB00004F1540207CA05604A60E563C4E91555AB
:100BC000E565C4E90B55C4E90D5584F8245084F853
:100BD000255000E001252846F8BD00BF040402406E
:100BE00000000240F0B5D0E910230168042403F0AE
:100BF0001C0316680D689C40344201D06F071BD45B
:100C000002249C40344201D0AF071FD426FA03F4DB
:100C1000240735D52C0733D50C6824F00E040C605E
:100C2000012101FA03F353600022C16380F82420FC
:100C300080F82510416B1FE00B689B0603D40B68FE
:100C400023F004030B605460016B15E00A68920600
:100C500006D40A6822F00A020A60012280F82520E0
:100C6000002280F82420074A02F17C03994288BFC1
:100C700002F580621460C16A11B1BDE8F040084716
:100C8000F0BD00BF0400024000284BD0F8B5044678
:100C900002202B4984F8250004F10806206801F1A0
:100CA000080268CE9042274A38BFA1F5806138BF5C
:100CB00002F5806214270244B2FBF7F29200C4E905
:100CC000101247F6F07201689143016045EA030192
:100CD000626931431143A2691143E2691143226AF7
:100CE00011430268114301602046FFF733FEA068FC
:100CF00004F14803B0F5804F06BF002060606068D3
:100D000000F07F050ECB013803280D6053600BD82F
:100D10002046FFF745FE04F15402002307CA036092
:100D20004A6005E0012070470020C4E91500E06535
:100D300000200121E06384F8240084F82510F8BD28
:100D400000040240F8FBFDBFB0B5044690F8240053
:100D5000012804BF0220B0BD02F097FC13D102208D
:100D600084F825000020E0632068056825F001056F
:100D700005602046FFF728FE2068226B01684AB113
:100D800041F00E010CE0002084F824008020E06394
:100D90000120B0BD21F004010160016841F00A01A9
:100DA0000160A16C0A68D20303D50A6842F480721C
:100DB0000A60616D19B10A6842F480720A600168C4
:100DC00041F0010101600020B0BD81B000900098A9
:100DD00001B005F0E3BA00002DE9FC4F974A4FF04F
:100DE000000890424FF0070208BF022200240023AF
:100DF0000092019131FA03F608BFBDE8FC8F012291
:100E000002FA03F616EA010E57D08E4A4FEA930C07
:100E1000B0F1904F52F82C9007D08B4ADDF800A02B
:100E2000904208BF4FF0010A01E04FF0000A08F0BD
:100E30000C0B0721424601FA0BF80AFA0BF509EAF6
:100E40000807AF421BD17E49D1F8805025EA0E0534
:100E5000C1F88050D1F8845025EA0E05C1F88450BD
:100E60000D6825EA0E050D604D6825EA0E054D60FA
:100E7000744951F82C5025EA080541F82C500321FB
:100E80000768904601FA04F50F212F43076002F02E
:100E90001C0701FA07F76FF0030101EA530202444D
:100EA000116AB94311628168A94381604168B14305
:100EB0004160C168A943C160019908F10408023486
:100EC000013397E72DE9F84F5C4A5E4F4FF0000978
:100ED0004FF0010B4FF0000890424FF0070208BF9F
:100EE0000222002300920D6835FA03F208BFBDE824
:100EF000F88F0BFA03F215EA020A00F099804E68A7
:100F000006F0030CACF10105012D19D8032404FAF5
:100F100008F5846824EA050ECC6804FA08F444EA6B
:100F20000E048460C6F3001404FA03FE446824EA45
:100F3000020242EA0E026FEA050E42605A000CE01D
:100F4000032202FA08F2BCF1030F6FEA020E4246D6
:100F500003D142464FF0030C1FE0C4688D6804EAD9
:100F60000E0495402C43BCF1020FC46015D109F06A
:100F70001C040F2505FA04FC6FF0030505EA53066F
:100F80000644356A25EA0C0C0D6905FA04F444EAB6
:100F90000C0434624E6806F0030C04680CFA02F28A
:100FA00004EA0E04224316F4403F026040D09A083F
:100FB00057F822C0B0F1904F05D0234C009DA042BD
:100FC00008BF012500E0002509F00C040726A64013
:100FD00005FA04F42CEA0606BC46344347F82240DE
:100FE000174A174612684D6842EA0A04EE0258BFD3
:100FF00022EA0A043C60AE027A6842EA0A0458BF58
:1010000022EA0A047C60EE03D7F8802042EA0A0450
:1010100058BF22EA0A04C7F88040AD03D7F88420FD
:1010200042EA0A0458BF22EA0A04C7F88440674625
:1010300009F1040908F10208013354E700080048E7
:10104000000800580800014000040048426902EA14
:101050000103914341EA0341816170471823002A4B
:1010600008BF2823C150704703480078012808BFF3
:1010700005F0C4B9002070470806002090F8412010
:10108000202A03D190F84020012A01D1022111E049
:10109000242280F841200268136823F001031360C2
:1010A000136823F48053136013681943734602F0E6
:1010B00038FB9E460846704790F84120202A03D10D
:1010C00090F84020012A01D1022110E0242280F86A
:1010D00041200268136823F001031360136823F4AE
:1010E000706343EA0121734602F01BFB9E460846EB
:1010F0007047000000B3B0B5044690F8410018B93D
:1011000002F0F7FD00F056F9242084F84100D4E9FC
:101110000003D4E90212056823F07063012A25F068
:10112000010505600361836823F40043836005D1F2
:1011300041F40041816009E00120704741F404411D
:10114000022A816004BF4FF40061416041680F4A88
:1011500004F1100511434160C16821F40041C160F0
:101160002ECD114341EA0321C160216A2943016068
:10117000016841F00101016000202021606484F8D1
:101180004110206384F84200B0BD00BF008000021F
:101190002DE9F84F02F026FB0CD1DDF828B0BBF1A9
:1011A000000F09D0DDF82C80B8F1000F04D002F058
:1011B00046FD07D1022502E002F04DFD012528463B
:1011C000BDE8F88F02F092FC02F0CCFC0028F6D1CA
:1011D00022200C990025F2B2002384F8410040201F
:1011E00084F84200304802F0D9FC8346A0F58060C4
:1011F00002F0F6FC02F08AFC50B9012E02D002F097
:101200007DFC28B902F02BFD402102F046FB10B115
:1012100084F84050D2E702F0D9FB09D3FF205146B1
:10122000FF224FF080732085CDF800B0204608E003
:10123000608D51464FF000732085C2B22046CDF834
:1012400000B002F011F80025FF26204604210022FC
:10125000434602F022FB0028B0D102F02BFB12D152
:1012600088B1204680210022434602F016FB002868
:10127000A4D102F0ABFB02D302F099FC01E002F032
:1012800084FC01F0F1FF608D0028DED1204641464C
:1012900002F0BEFC00287FF491AF20682021444B6F
:1012A00002F09DFB8BE700BF002400802DE9F84F82
:1012B00002F098FA0CD1DDF828B0BBF1000F09D08C
:1012C000DDF82C80B8F1000F04D002F0B8FC07D193
:1012D000022502E002F0BFFC01252846BDE8F88F98
:1012E00002F004FC02F03EFC0028F6D121200C990B
:1012F0000025F2B24FF0807384F84100402084F85A
:1013000042002A4802F04AFC02F06AFC02F0FEFBAE
:1013100050B9012E02D002F0F1FB28B902F09FFC77
:10132000802102F0BAFA10B184F84050D4E702F0FC
:101330004DFB04D3FF20514602F062FC08E0608DB3
:1013400000214FF0007320850091C2B22046514623
:1013500001F08AFF0025FF2602F0D8FB0028BBD150
:1013600002F0CEFA12D188B12046802100224346F5
:1013700002F093FA0028AFD102F028FB02D302F06A
:1013800016FC01E002F001FC01F06EFF608D002808
:10139000E2D12046414602F03BFC00289CD1206867
:1013A0002021034B02F01BFB97E700BF00200080C9
:1013B00000E800FE2DE9F04395B004460FA8142183
:1013C000FEF720FF01A834210430FEF71BFF206840
:1013D000204988423AD14FF4401008904FF4807071
:1013E000019001A800F004F908B1FFF70BFB0220FF
:1013F00001F0E2FF04204FF0040801F0DDFF4FF0A0
:101400000009012612271020134CCDF84C800F90B4
:10141000CDF84890119610970FAD20462946FFF75A
:1014200051FD04F580602946CDF84C80CDE9116965
:10143000CDE90F67FFF746FD0848016841F4000158
:101440000160006800F400001490149815B0BDE825
:10145000F08300BF005C00400004004858000058C2
:1014600080B5032000F04EF800F062FA3A490860B7
:101470000F2000F007F808B1012080BD00F004F84B
:10148000002080BD002070477047000000280CD469
:1014900000F01F010122400902FA01F1034A42F85B
:1014A0002010BFF34F8FBFF36F8F704780E100E0D4
:1014B000002808D400F01F010122400902FA01F1BE
:1014C000014A42F82010704700E100E070B5134B6C
:1014D0004FF0FF351B68C3F30223DC1E83F00703C4
:1014E00038BF002405FA04F6B243042B28BF0423B6
:1014F00005FA03F39943A1401143BDE8704006F09B
:101500007DB800BF05494FF6FF030A681A4060F333
:101510000A22034810430860704700BF0CED00E04A
:101520000000FA0520483222016821F48041016060
:10153000094909685143094AB1FBF2F14A1E43695E
:101540008A4203D213F400711146F7D14069032196
:10155000800501EAE07070471400002040420F004F
:10156000114802F0E1BA00BF0F49022301280A68BE
:1015700063F302020A601D490A6842F004020A602D
:101580000FBF30BF40BF20BF20BF02F085B800BFF3
:101590000548006800F4C060704700BF0248016859
:1015A00041F48071016070470004005810B50C468A
:1015B0000D49096801F4007118B139B9FFF7D0FF7E
:1015C00004E019B1FFF7AEFF00B110BD0748012CD0
:1015D000016821F00401016004BF30BF10BD40BFAD
:1015E00020BF20BF10BD00BF1404005810ED00E064
:1015F000F8B504468078544EC00742D0FFF7CEFFBE
:10160000FFF732FD0546D6F8F403C00506D4FFF710
:101610002BFD401B0228F6D9032533E0606BD6F87A
:10162000841001F44071814224D0D6F88410D6F899
:10163000842042F48032C6F88420D6F8842022F434
:101640008032C6F8842021F4407289070146C6F82A
:1016500084200FD5FFF708FD054641F28837D6F8FC
:101660008400800705D4FFF7FFFC401BB842F6D981
:10167000D2E7616BD6F8840020F440700843C6F8C6
:10168000840000252068C10702D0616802F0BBF920
:10169000810702D5A16802F0B6F9810605D5216956
:1016A000F26F22F440621143F167810502D5216A8D
:1016B00001F0E1FF410502D5616A01F0DCFF01059F
:1016C00002D5A16A01F0D7FF410603D5606901F098
:1016D0008FFE2068010603D5A06901F089FE20680D
:1016E000C10503D5E06901F083FE2068C1060CD571
:1016F000E168F26F22F440720A43B1F5807FF2672D
:1017000003D1316841F08071316001040AD5216B49
:10171000F26F22F040420A43F26719B9316841F092
:101720008071316040040CD5E06AF16F21F04051C6
:101730000143B0F1005FF16703D1306840F48030BD
:1017400030602846F8BD00BF0C0000582DE9F84372
:10175000002800F0B780734F05460C46386800F04B
:101760000700884211D2386820F00700204302F0B9
:101770009FF90646386800F00700A04205D0FFF741
:1017800073FC801B0228F5D96EE02868B9467C4FAF
:10179000810711D5A868396821F0F001084302F0EB
:1017A00087F906463868C00305D4FFF75DFC801B47
:1017B0000228F7D958E02868810615D56869D7F856
:1017C000001121F0F0010843C7F80001FFF74CFCBD
:1017D0000646D7F80001800305D4FFF745FC801BBF
:1017E0000228F6D940E02868410616D5A869D7F83E
:1017F000001121F00F0141EA1010C7F80001FFF7B6
:1018000033FC0646D7F80001C00305D4FFF72CFCD3
:10181000801B0228F6D927E02868410711D5E8681F
:10182000396821F4E061084302F042F9064638685D
:10183000800305D4FFF718FC801B0228F7D913E0BA
:101840002868010714D52869396821F4605141EAF4
:10185000C00002F02DF906463868400307D4FFF7B0
:1018600003FC801B0228F7D90320BDE8F883286811
:10187000C0071CD1D9F8000000F00700A04224D90D
:10188000D9F8000020F007002043C9F80000FFF756
:10189000EBFB05464846D9F8000000F00700A042DF
:1018A00013D0FFF7E1FB02F03BF9F3D930E06868B1
:1018B0004FF0B04198B103282CD002282ED10968EE
:1018C00089030FD40120BDE8F88300F031F81649F0
:1018D000086016480068BDE8F843FFF7D3BD096803
:1018E0008907EFD5396821F00301084302F0E0F8D9
:1018F000064641F288386868396801F00C01B1EB9E
:10190000800FB7D0FFF7B0FB811B03204145F2D910
:10191000BDE8F88309688901D4D5E3E7096849057A
:10192000D0D5DFE70040005814000020040000205C
:1019300080B500F029F812493C22096802EA9101B9
:10194000024A5158B0FBF1F080BD00BF307A000868
:1019500080B5FFF7EDFF0A490A4A0968C1F3022181
:1019600052F82110C84080BD80B5FFF7E1FF04495F
:10197000044A0968C1F3C22152F82110C84080BD51
:1019800008000058707A000810B5364951F8042C48
:10199000086812F00C0205D00C2A15D100F00300E3
:1019A000012811D14FF0B0400368006800F0080032
:1019B0001B0705D4B8B9D1F88800C0F303201CE098
:1019C000B0B9D1F8880011E02748042A1ED0082AAF
:1019D0001BD14FF0B0421268D2025CBF44F6000047
:1019E000C0F2E81012E04FF0B0400068002004E0C0
:1019F0004FF0B0400068C0F303101C4B002A53F8AE
:101A00002030184618BF002001E00020002351F8C4
:101A1000042C02F00C020C2A22D1086800F0030208
:101A20001148022A0CD0032A09D14FF0B0421268A3
:101A3000D2025CBF44F60000C0F2E81000E0184695
:101A40000A680B6809680124C2F3062204EB51718D
:101A50005043C3F302120132B0FBF2F0B0FBF1F0DD
:101A600010BD00BF0C0000580024F400447B0008A7
:101A70002DE9F047002800F04A81DD4C824660687D
:101A800000F00C08A06800F003099AF80000800636
:101A900027D49AF80000C00766D0B8F1080F5ED0CE
:101AA000B8F10C0F08BFB9F1030F58D04FF0B04197
:101AB000DAE901020B6823F480131A43B0F5803F82
:101AC0000A6009D0B0F5041F40F094814FF0B04097
:101AD000026842F400120260086840F48030086036
:101AE00094E1B8F1000F1DD0B8F10C0F08BFB9F1A7
:101AF000010F17D04FF0B0463068DAF820100029F7
:101B000000F0088140F0010001F041FE0546306818
:101B1000800700F12B81FFF7A7FA02F001F8F6D950
:101B2000BDE8F087DAF82000002800F0F0804FF0E0
:101B3000B041DAF828000A6812075ABFD4F89010AA
:101B40000909096801F0F001884240F2CA8002F0F8
:101B5000A7FA002840F0DB8001F079FDFAE0DAF81E
:101B60000400002800F0D3809AF8000080072BD5ED
:101B7000B8F1040F1BD0B8F10C0F08BFB9F1020F78
:101B800015D04FF0B0463068DAF81010002900F098
:101B90004D8140F4807001F0FAFD05463068400543
:101BA0000AD4FFF761FA01F0BBFFF7D9B8E7DAF81A
:101BB0001000002800F0AB80DAF81400216821F052
:101BC000FE4141EA006020609AF8000000072CD432
:101BD0009AF8000040074FD4DAF82C60002E00F08D
:101BE0007781B8F10C0F40F0C480012E00F08F8097
:101BF000DAF83010A06800F003028A4240F08780D3
:101C0000DAF8341000F070028A4240F08080DAF88E
:101C1000381000F4FE42B2EB012F78D1DAF844100C
:101C200000F06040884272D152E1D4F89010DAF8A6
:101C3000180000287DD0DAF81C0001F01002904254
:101C400000F0898101F00302022A60D0C90700F088
:101C50007B81D4F8900020F0010001F0B0FF054630
:101C6000D4F89000800740F16D81FFF7FDF9411B2A
:101C700003201129F4D953E7D4F8FC03C0050ED48E
:101C8000FFF78CFCFFF7F0F90546D4F8FC03C0051C
:101C900005D4FFF7E9F901F043FFF6D940E7DAF898
:101CA0000C00002800F0D180852801D0052805D13E
:101CB000D4F88C0040F00400C4F88C00FFF7D4F98D
:101CC00001F02DFE40F00100C4F88C00D4F88C0027
:101CD000800772D4FFF7C8F9411B0320B142F5D940
:101CE0001EE74FF0B0410A6842F008020A600A6835
:101CF00022F0F00202430A60DAF82410226822F48B
:101D00007F4242EA0121216002F0CAF910B30120AA
:101D1000BDE8F08720F0010001F039FD054630688C
:101D200080077FF5B6AEFFF79FF901F0F9FEF6D90F
:101D3000F6E621F0010001F042FF0546D4F89000DC
:101D400080077FF545AFFFF78FF9411B032011296D
:101D5000F4D9E5E6FFF7ECFD88490860884800689B
:101D6000FFF790FB00287FF4DBAE92E601F06FFCFA
:101D70008FE64FF0B048D8F8000020F08070C8F827
:101D80000000FFF771F90546022E0AD1D8F80000CD
:101D9000800174D5FFF768F9411B03200A29F5D9A2
:101DA000BEE6D8F80000800140F18E80FFF75CF9B4
:101DB000411B03200A29F4D9B2E6DAF80C0040F0FE
:101DC0000400852840F08780FFF74EF901F0A7FD59
:101DD00040F08000C4F88C00D4F88C0000053FF57A
:101DE000FBAEFFF741F9411B0320B142F4D997E65E
:101DF000040000584FF0B0460028316821F48031CB
:101E00003160316821F40011316078D0FFF72CF98E
:101E100005464FF0B046306880033FF5A5AEFFF7AA
:101E200023F9411B03206429F5D979E620F4807059
:101E300001F0ADFC0546306840057FF5C5AEFFF703
:101E400013F901F06DFEF6D96AE6FFF70DF90646C3
:101E5000D4F88C0041F2883920F08000C4F88C005E
:101E6000D4F88C0027460405FFF7FEF80546002C41
:101E700053D5A91B03203C464945F1D950E6A0683B
:101E800041490AF130070840EECF0843104340EAC9
:101E9000032028434FF0B04530433843A060286802
:101EA00040F080702860A06840F08050A060FFF78C
:101EB000DBF80446286880010AD4FFF7D5F8011B37
:101EC00003200A29F6D92BE6A0682E490840A06015
:101ED0000020BDE8F087FFF7C7F801F020FD20F0F3
:101EE0008000C4F88C00D4F88C0000057FF574AE37
:101EF000FFF7BAF8411B0320B142F4D910E6FFF70F
:101F0000B3F80546306880037FF52EAEFFF7ACF8D6
:101F1000411B03206429F5D902E6D7F88C003C4622
:101F200041F2883620F00100C7F88C00D4F88C000C
:101F300080077FF551AEFFF797F8411B0320B142B0
:101F4000F4D9EDE5DAF81C00D4F8901021F0100176
:101F50000843C4F89000D4F8900040F0010001F06C
:101F60002EFE0546D4F8900080073FF531AEFFF70E
:101F70007BF8411B03201129F4D9D1E5140000207E
:101F800004000020FCFFFEEE8C80C11170470000B1
:101F9000034850F821007047014840F8212070475D
:101FA00000B1004090F82C200221012A0DD080F8C9
:101FB0002D10C149734601F05EFC9E4642F020029E
:101FC0000A60734601F085FB9E460846704700BFD5
:101FD00080B504F0B9F90130BDE8804004F0C0B923
:101FE00010B5044621480168490604D540218160A6
:101FF0002046FFF7EDFF012084F82D0010BD00BF43
:1020000090F82C200221012A12D080F82D10AA4924
:10201000734601F030FC9E4642F080020A60A84AF6
:10202000136843F480231360734601F052FB9E460D
:102030000846704705F018BA70B50C4D044628687C
:10204000216B01EA0006F00704D00120A8602046B9
:10205000FFF7F0FFB00704D50220A8602046FFF785
:1020600095FF012084F82D0070BD00BF542800406A
:10207000B0B590F82C300222012B2ED08E4BCA2402
:1020800080F82D20DC605324DC606FF40854B1F537
:10209000807F08BF6FF488541D682C401C60342476
:1020A000B1F5807F08BF2C24E55825F00045E550A8
:1020B00008BF01225A64FF22DA6000226FF0020397
:1020C00080F82C20B1F5807F08BF6FF00103016B11
:1020D00019400163012180F82D101046B0BD00BFEA
:1020E00070B5A8B3044690F82D0028B9002084F8F4
:1020F0002C00204600F042F802207E4D84F82D008E
:102100002868C00632D4CA20A8615320A86120469E
:1021100002F044F8C8B9E8681749261D0840E8608D
:102120004ECEA06931430843E9680843E86043EABA
:1021300002406860D4E909012A6822F4F852104389
:102140000843286001F06BFB20B1FF21A96170BD3D
:10215000012070BD6069D4E90712EB6823F0604389
:102160001A4311430843E860FF20A861012084F866
:102170002D00002070BD00BFBFFF8FFB10B590B0D9
:10218000044601A830210430FEF73CF820681749C6
:10219000884229D14FF480700E904FF48030019026
:1021A00001A8FFF725FA08B1FEF72CFC1048002221
:1021B000816B41F400418163016841F480610160F9
:1021C0000021006800F480600F900F980220FFF754
:1021D0007DF90220FFF76CF92A2000210022FFF789
:1021E00075F92A20FFF764F910B010BD00280040EF
:1021F000580000582DE9F04701F0D1FA59D084F881
:102200002D0001202C4F01F0DEFC01D1002026E042
:1022100072B16869B0F1803F07D0B0F5000F04D00B
:10222000396849065CBF0021E97001F03FFA16E009
:102230003868DFF888A040065CBF0020E870287886
:10224000D5F81490D04780466878D04701F0E3FC79
:1022500001F0E0FB296A41EA080141EA006001F06F
:1022600068FC0ED101F027FD19BFB862A869D5E955
:1022700006010843F86268680121B8654FF4885088
:102280000DE001F0F3FC19BF3863A869D5E9060138
:102290000843786368680221F8654FF408503A688B
:1022A000104338600648026842F40032026001F0D0
:1022B00041FBBDE8F08700BF1828004079410008C5
:1022C00080080058B0B50B4D286820F02000286029
:1022D000FEF7CAFE04462868800644BF0020B0BD51
:1022E000FEF7C2FE001BB0F57A7F84BF0320B0BDAD
:1022F000F1E700BF0C280040014801F016BB00BF09
:1023000010E000E0012904D041B9D748816880205D
:102310000847D54881684FF480700847704700BF70
:10232000D1488168402008472DE9F04101F079FC4F
:1023300002D16079012802D10220BDE8F08101F0CC
:1023400035FADE490868884601F06CFB394603F02F
:102350000BF920460021002703F006F9AF4204D212
:1023600001F03AFC01370136F8E701F0A4FB01F077
:10237000B9F918BF0120BDE8F08100BF2DE9F04197
:1023800001F04FFC02D16079012802D10220BDE8A2
:10239000F081012520461E4617468846657103F0E8
:1023A00011F948F010004146942818BF0025257106
:1023B000DD4D286820F40040286001F05FFC2EB15C
:1023C00017F8011B01F05AFC013EF8E72868B8F144
:1023D000840F40F40040286002D0204603F016F934
:1023E00001F080F918BF0120BDE8F0819E488168A6
:1023F000202008479C48816810200847F8B504460B
:1024000000200DF1020512210223ADF80200204642
:102410002A46FFF789FF9DF802609DF80370204669
:1024200002212A460223FFF7A9FFF80702D020461F
:1024300000F016F9B80702D5204600F003F9780736
:1024400002D5204600F09EF8380702D5204600F05D
:1024500003F9F80602D52046FFF7CCFFB80602D5EF
:102460002046FFF7C3FF780602D52046FFF758FF46
:10247000380604D506F001012046FFF743FFB007F8
:1024800002D5204600F0E2F8700602D5204600F0A2
:102490005BF8F8BD88B1BCB504468079264D70B1B3
:1024A000032806D101F00FFC2448016841F4805153
:1024B00001604FF40060286131E00120704701F0B5
:1024C00002FC1E486422016841F480510160022030
:1024D0001B49A071685820F40040685019480068F2
:1024E000C0EBC000C0F34C4050430190019830B1A4
:1024F000019A013A01926A585204F7D401E001218D
:10250000A160D5F8881041F40041C5F88810296809
:1025100041F4006129604FF40061296148B12068ED
:1025200002F0E2FF00200121A06021710121A171D0
:10253000BCBD0120FAE700BF08040058900800580D
:102540008CFCFFFF14000020474881684FF4804056
:10255000084700BFE0B50A480022016841F00101C8
:1025600001600021006800F0010001900198322014
:10257000FEF7ACFF3220BDE88C40FEF799BF00BFEC
:102580006400005838488168042008472DE9F84362
:1025900001F047FB02D16079012802D10220BDE899
:1025A000F88301F003F96049DFF880810868894603
:1025B00001F038FA1E21C04720463946C047204660
:1025C00000210027C047AF4204D201F005FB0137CC
:1025D0000136F8E701F0BAF901F084F818BF0120DC
:1025E000BDE8F8832DE9F84301F01BFB02D16079C7
:1025F000012802D10220BDE8F88301F0D7F84A494A
:10260000DFF828810868894601F00CFA1D21C047CF
:10261000390A2046C047F9B22046C047204600216B
:102620000027C047AF4204D201F0D6FA0137013685
:10263000F8E701F08BF901F055F818BF0120BDE86B
:10264000F88300BF0848816802200847064881686F
:102650004FF40070084700BF03488168082008470E
:102660000148816801200847A40000202DE9F041BD
:1026700001F0D7FA02D16079012802D10220BDE829
:10268000F08101F093F828490868884601F0CAF9FA
:102690000E2102F069FF2046394602F065FF2DB198
:1026A00016F8011B01F0EAFA013DF8E701F003FA20
:1026B00001F018F818BF0120BDE8F081900400581F
:1026C0002DE9F84301F0ADFA1CBF0220BDE8F88304
:1026D0000F4661790220012923D0A07101201D46F7
:1026E00016466071204602F06DFF0F49DFF83C800E
:1026F0000868894601F096F90D21C047390A20463D
:10270000C047F9B22046C0472DB116F8011B01F0B1
:10271000B5FA013DF8E701F019F900F0E3FF18BF41
:102720000120BDE8F88300BF9004005869550008F7
:10273000014800F0B6BF00BF10E000E010B501F0A6
:102740007AF904BF022010BD2420C4F88800206854
:102750000168026822F0010241F00051026001228A
:1027600084F884204FF0005262660160204603F036
:10277000DBFF0020202184F88400C4F8881010BDFD
:1027800090F88410012901D102210FE0012180F885
:102790008410016851E8001F026841F0020142E81C
:1027A0000013002BF5D1002180F8841008467047F3
:1027B00070477047B0B501F03EF904BF0220B0BDCC
:1027C00000F0A1FF22F0606201F082F901F001B88F
:1027D000B0B501F030F904BF0220B0BD00F093FFA6
:1027E00022F0604201F074F900F0F3BFBCB501F0D3
:1027F00022F904BF0220BCBD2420C4F88800206850
:10280000036823F001030360012384F884308368A4
:1028100023F440130B43836059B9436891B223F00A
:10282000100319434160C2F30741426861F31F621C
:102830004260016841F001010160FEF715FC0346AA
:102840006FF07E404FF4800100220025009020466A
:1028500004F0FAFB08B1032003E02020C4F888004C
:10286000002084F88450BCBD70477047704700005A
:1028700070B50446006840F60F05C26901688368B8
:102880002A426BD0A94D01EA0506A94D1D407619D3
:102890006ED0D60709D0CE0507D501260662D4F83A
:1028A000906046F00106C4F89060960709D5DE07EF
:1028B00007D002260662D4F8906046F00406C4F8F9
:1028C0009060560709D5DE0707D004260662D4F8C3
:1028D000906046F00206C4F8906016070BD501F030
:1028E0002006354307D008250562D4F8905045F0FE
:1028F0000805C4F8905015050AD54D0108D54FF4C8
:1029000000650562D4F8905045F02005C4F8905059
:10291000D4F89050002D6ED092060AD501F0200117
:1029200003F08052891804D0616F11B120468847A6
:102930002068D4F89010806801F0280100F0400071
:10294000401852D0204603F0DFFF20688168490616
:102950005FD501F004F84FD02068FAE7950607D557
:1029600001F0200503F08056AD1901D0616F13E02E
:10297000E56E012D03D1D50601D5CD064ED4D50285
:1029800001D55D0229D415060BD501F0800503F4AD
:1029900000035B1905D0A16F69B32046BDE8704004
:1029A0000847530601D54B060DD4100201D5480047
:1029B00059D4D0011FD5B1F1FF3F1CDC2046BDE842
:1029C0007040FFF7F6BE50E8000F216820F040008D
:1029D00001F02DF83DD02068F5E74FF48011016239
:1029E0002046BDE87040FFF740BF2046FFF73EFF9E
:1029F0000020C4F8900070BD00F06CFF09D04D4974
:102A00008163FEF755F80028F5D0D4F88000816B7B
:102A1000C4E72046BDE87040FFF728BF10210162DF
:102A20008168490624D4B4F85E10B4F85C20B4F888
:102A30005E30002BDFD0511A0A04DCD050E8000FC2
:102A4000226820F4907042E80003002B4CD02068EC
:102A5000F4E70020A0672020C4F888002046BDE8E5
:102A6000704000F08BB92046BDE87040FFF7FCBE17
:102A7000D4F880100A6853689DB2002DBBD0B4F81A
:102A80005C108D42B7D2A4F85E301268920624D44E
:102A900050E8000F216820F4807000F0C8FF01D0DA
:102AA0002068F5E7206850E8020F216820F0010057
:102AB00001F00AF8F6D1206800F051FFFBD1202088
:102AC000C4F88C000020E06600F013FEFCD1D4F8BE
:102AD0008000FDF7B5FFB4F85C1002202067B4F861
:102AE0005E00081A81B21CE01348226852E8022FE7
:102AF0002368024043E80225002DF6D12020C4F8C7
:102B00008C0000206067E066206850E8000F2268B3
:102B100020F0100042E80003002BF5D1022089B21A
:102B200020672046BDE87040FFF742BE2001000448
:102B30000100001063680008FEFFFFEF10B548B108
:102B40000446D0F8880008B901F0C2F800F036FE5B
:102B5000012801D1012010BDA06A08B100F099FF41
:102B600000F090FF21F02A01816000F06FFEBDE8C7
:102B7000104003F04FBE000010B5044600688449C1
:102B8000884218BF10BD0948016821F40031016076
:102B90004FF090400C21FEF71FF9E06FFDF7CEFFDC
:102BA0002520BDE81040FEF771BC00BF580000585A
:102BB00070B594B004460EA81421FDF723FB6846B7
:102BC00034210430FDF71EFB2068714988424FD143
:102BD00028480225009502906846FEF709FD08B1D5
:102BE000FDF710FF24480026C16841F40031C160A0
:102BF000C16801F4003113911399016841F001019A
:102C00000160006800F0010013900720CDE90F5625
:102C10001290032011900C200E9013980EA94FF0E3
:102C20009040FEF74FF91548154D802110221423CE
:102C3000C0E90053C0E90226C0E90416C0E90666EF
:102C40000662FEF721F808B1FDF7DCFE0B4D1021FE
:102C50002846FDF763FF08B1FDF7D4FE25200221C9
:102C60000022AC62E567FEF731FC2520FEF720FC70
:102C700014B070BD04000C004C0000587006002019
:102C800058000240B0B5D0F88C30202B1CBF022079
:102C9000B0BD91B18AB10023094CC3660368A34259
:102CA00002D05C68240203D404F048F90020B0BDCF
:102CB00000F014FEF8D00368FAE70120B0BD00BFB1
:102CC0000080004010B5044600683149884218BFB2
:102CD00010BD0848436833B1D4F8900018B90548CE
:102CE000012100229847034920460122BDE81040F7
:102CF000FFF7C8BF28000020F8B50446D0F88800C8
:102D000020281CBF0220F8BD01B31346F2B10022F7
:102D10002120A4F85630C4F89020A4F8543021653E
:102D2000C4F88800E06F98B1114D124E124FC0E9FF
:102D30000D522268C0E90B762832FEF705F838B14B
:102D40001020C4F890002020C4F888000120F8BDAD
:102D500020684021016250E8020F216840F08000A5
:102D600000F0B2FE01D02068F5E70020F8BD00BFFA
:102D70007368000801690008C96800080068044910
:102D8000884218BF7047034801680020084700BF09
:102D9000004400406C060020704700002DE9FC4113
:102DA000674900F059FE0DF105002160BE2100F0D9
:102DB000C7F980B900F043FD01D000250BE00DF10B
:102DC000050000F017FF30B900F018FD0DF1050007
:102DD00000F0C6F910B12846BDE8FC810DF10506EA
:102DE00001253046BE21272200F0C8FD0028F2D17F
:102DF0009DF805008007F4D00DF10600BE21A82241
:102E000000F01AFD08B10125E5E7B74EBDF906004F
:102E1000B6F90070B6F90280C01BFDF7CAFB054683
:102E2000D6E902063146FDF751FA2946FDF754FA74
:102E30000546A8EB0700FDF7BCFB00F008FF00F01B
:102E400031FFFDF7F4FB3F4E00F010FDFDF7D0FB26
:102E500000B2FDF7BCFB00F094FEFDF7FBFB002188
:102E60000746FDF798FB064E002818BF0027384696
:102E700027603146FDF781FB0028ACD126609CE736
:102E80000000C8422DE9FC412D4900F0E5FD0DF19F
:102E900005002160BE2100F053F980B900F0CFFC9D
:102EA00001D000250BE00DF1050000F0A3FE30B9C4
:102EB00000F0A4FC0DF1050000F052F910B1284615
:102EC000BDE8FC810DF1050601253046BE21272213
:102ED00000F054FD0028F2D19DF805008007F4D0E1
:102EE0000DF10600BE21AA2200F0A6FC08B10125C2
:102EF000E5E7DFF8F481BDF90600B8F90470B8F928
:102F00000660C01BFDF755FB0546F01BFDF751FBA6
:102F100000F09DFE00F0E7FE2946FDF7DDF900F028
:102F2000C1FEFDF784FB074E00F0A0FCFDF760FB3F
:102F3000FDF74DFB00F025FEFDF78CFB2060BEE7A2
:102F400000F8FF4500005940BCB500248DF803404F
:102F500000F0CCF800286FD1ADF8044001A8BE21E4
:102F6000322200F00BFD002866D19DF8044001A834
:102F7000BE21352200F002FD00285DD19DF804003D
:102F800000F0030044EA0020FDF713FB4FF07851F6
:102F9000FDF7A2F9544CBE2133220123606101A840
:102FA00000F0CEF8002847D19DF8045001A8BE21BA
:102FB000352200F0E3FC00283ED19DF8040000F02B
:102FC0000C0045EA8010FDF7F4FA4FF07851FDF758
:102FD00083F9206101A8BE21BC2200F02DFC58BB62
:102FE000BDF80400BE21BE220223A08001A800F08B
:102FF000A7F808BBBDF80400BE2130220123E08001
:103000000DF1070000F09CF8B0B90DF10600BE21EB
:10301000312200F0B3FC78B901A8BE21B62200F03D
:103020000BFC48B9BDF80400BE21BA22022320805F
:1030300001A800F085F810B101242046BCBDBDF800
:10304000040060809DF80700FDF7BCFA4FF07C514A
:10305000FDF742F9E0609DF80600FDF7B3FA4FF086
:103060007C51FDF739F9A0600DF10300BE2120224B
:1030700000F076FB0028E0D19DF80300BE2120225D
:103080000123012400F0F80004308DF803000DF155
:10309000030000F065F80028CFD10DF10300BE2138
:1030A000222200F05DFB0028C7D19DF80300BE215D
:1030B00022220123012440F0C3008DF803000DF10A
:1030C000030000F04DF80028B7D11220BE211022D5
:1030D00001238DF803000DF1030000F041F80446D0
:1030E000002818BF0124A8E7B80000201CB50DF186
:1030F0000700BE21202200F033FB80B99DF80700B5
:10310000BE212022012340F080008DF807000DF140
:10311000070000F025F80446002818BF01242046C7
:103120001CBDFEE700688169890744BF00218162F8
:103130008169C90703D1816941F00101816170474B
:10314000FEB500F066FB00F00FFBF248FEF720F83A
:103150000446002818BF0124FFF7EAFA2046FEBD06
:10316000FEB500F056FB00F0FFFAEA48FEF79EF8C5
:103170000446002818BF0124FFF7DAFA2046FEBDF6
:103180002DE9F041044600680D468169C90602D464
:103190000025002139E0102116464FF000086F1C71
:1031A000C1610021826902F020020A4327D12FB1B8
:1031B000FDF75AFF801BA84203D815B100212068F3
:1031C000F0E72068436894F8421082695B0409D4F0
:1031D00012F4004206D0202904D000F067FDFDF76C
:1031E00043FF0646206880698006E7D4FDF73CFF70
:1031F000801B1A28F6D348F020080121DFE709B91F
:103200002021C16148F0040501218269D30505D55B
:103210004FF4807145F00105C1610121530505D4CA
:1032200092050AD471B90020BDE8F0814FF48061A5
:1032300045F00805C161910504D54FF4007145F0D2
:103240000205C1612046FFF76DFF2068054A41680D
:1032500011404160606C284300F0FEFA0120BDE897
:10326000F08100BF00E800FE70B500686FF39F2199
:10327000049D074E1943446841EA0241294324EA68
:10328000555421F0004134402143416070BD00BFDE
:10329000009C00FC2DE9F843DDF820801D46164611
:1032A0000F4681465C1CD9F8000080693840C01B7D
:1032B000B0FA80F04009B0421AD1002CF3D0FDF7EB
:1032C000D3FEA0EB0800A84201D8002DEBD1D9F81D
:1032D000440040F02000C9F84400202089F8410053
:1032E000002089F8400089F842000120BDE8F883F9
:1032F0000020BDE8F88370B515460E4604462068E8
:103300008069800644BF002070BD00F004FC58B9FD
:10331000FDF7AAFE401BB04201D8002EEFD1606C31
:1033200040F0200000F098FA012070BDF8B5154675
:103330000E4604464F1C20688069800744BF002069
:10334000F8BD00F0E8FB68B9002FF4D0FDF78CFE63
:10335000401BB04201D8002EEDD1606C40F020003F
:1033600000F07AFA0120F8BD81B005490A680243ED
:103370000A60096808400090009801B0704700BFDB
:103380004800005881B019490A6802430A60096878
:1033900008400090009801B0704700BF81B013480A
:1033A000016841F002010160006800F00200009035
:1033B000009801B0704700BF81B00C490A68024311
:1033C0000A60096808400090009801B0704700BF8B
:1033D00081B00648016841F004010160006800F016
:1033E00004000090009801B0704700BF4C000058E6
:1033F000064A6FF47F2161EA101100F47F401368E0
:10340000194041EA00101060704700BF8800005862
:1034100080B50420FFF7A8FF0120FFF7A5FF0F20CC
:1034200002210022FEF752F80F20BDE88040FEF78F
:103430003FB800002DE9F04786B0204C4FF000085F
:1034400002200225CDF81480A0470420A0470120C7
:103450004FF0010AA0471A4C4FF43A41002220468F
:10346000FDF7FCFD4FF40A400495CDE902A8154E86
:10347000019001AD20462946B0474FF404190327B7
:103480004FF090402946CDF80CA0CDF80890019758
:10349000B0474FF4405029460497CDE902A8019067
:1034A0002046B04740202946CDE9029A019004F514
:1034B0008060B04706B0BDE8F08700BF85330008E4
:1034C00000040048C50E000810B5124C012006216A
:1034D000114A124BC4E9021004F110001421C4E98E
:1034E0000032FCF78FFE2046FDF704FE08B1FDF721
:1034F00089FA08480021FDF7C1FD08B1FDF782FAFD
:1035000004480021FDF7D8FD18B1BDE81040FDF7D3
:1035100079BA10BDD00600205D3E3020005C00402E
:1035200080B58CB001A82821FCF76CFE174800225A
:103530004FF480714FF08043C0E908211F21C0E99A
:103540000422C0E90623816011490160FEF7C8FD2D
:1035500008B1FDF757FA0D48FEF752FD08B1FDF727
:1035600051FA4FF4807000220B904FF000500790FA
:103570000020069002900890044801A9FEF73AFE48
:1035800008B1FDF73FFA0CB080BD00BF2407002052
:103590000028004080B5054808210160FEF77AFF49
:1035A00018B1BDE88040FDF72DBA80BD5C07002052
:1035B00080B502F059FEBDE8804002F01BBD4FF01F
:1035C000FF3003F09DBE000010B5174C00210C2009
:1035D000164B4FF4E132C4E90410C4E9021104F1BE
:1035E00018001421C4E90032FCF70CFE2046FFF756
:1035F000A5FA08B1FDF706FA0B480021FFF7E8F835
:1036000008B1FDF7FFF908480021FFF7D3F808B12A
:10361000FDF7F8F90448FFF791F818B1BDE810403C
:10362000FDF7F0B910BD00BF68070020004400405E
:10363000FEE7FEE78202810D002310464FF47A7206
:10364000FCF796BD01200021012203F069BD4FF077
:10365000B040016841F008010160DAE9091203682D
:1036600023F0F0031A430260206820F47F4040EA10
:103670000120206070474FF6FF72F36F62EA01028B
:103680001A4042EA0141F1677047012084F82400A2
:1036900094F8250001287047086820F004000860AD
:1036A0007047016821F002010160704729786A784B
:1036B000AB7895F803C040EA0140296A40EA02204D
:1036C000184340EA8C50084395F8241040EA016002
:1036D0007047FF22CA600021012280F82C1080F878
:1036E0002D207047002001216071A068A171002881
:1036F0007047206850E8000F216820F0100041E872
:103700000002002A70472420C4F888002068056859
:10371000026822F001020260012284F8842082689B
:1037200070471160116841F00101116000212022F1
:1037300080F8401080F841207047022000210122CB
:1037400003F0EEBC8DF807004A70010A000C03225A
:103750008DF806108DF8050070474FF0FF30704768
:1037600001230124FFF7ECBC4FF47A7031462A465E
:103770000123CDE900740290704720464FF4807118
:10378000FEF776BC20464FF40061FDF75FBC306069
:10379000FDF76ABC016821F00101016070470D4628
:1037A00090F82C10044602200129704701201D4684
:1037B00016460F466071204601F004BF2420C4F86D
:1037C00088002068016821F001010160204603F0B3
:1037D000BFBA206820210560002084F88400C4F866
:1037E0008810B0BD044690F84100202870470022A0
:1037F000002302F025B9012302F0B2B99DF80500BB
:10380000BE2121220123012540F001008DF8050091
:1038100070471C4615460E460746FEF76DBD20460E
:1038200000F0E4BC016851E8021F026821F40001C5
:1038300042E80213002B70470223FFF781BC9DF87A
:10384000050010F003008DF805007047016841F095
:1038500001010160204670476064202084F8410027
:10386000002084F8400084F84200704700220025C0
:103870003346FCF7A1BDCA22CA605322CA600A6857
:10388000704704460068D0F81CA001688268B4F84C
:103890006050D4F88C30222B7047CDF80090FFF7A1
:1038A000F9BC51E8001F026821F4907142E800134E
:1038B000002B70472068616A406A0870608D01388B
:1038C0006085606A01306062208D411E2185090497
:1038D000608D7047D4F880000028704753E8003F9F
:1038E000046843F0806344E80035002D7047C4F855
:1038F0008C00C4F874B0C4F870B020688842704777
:10390000616A206811F8012B8262608D0138608540
:103910006162208D411E21850904608D7047054636
:10392000D4F88C0041F288367047016841F00201FA
:1039300001607047FF20F8600020226B84F82C00A3
:1039400011432163012184F82D107047D9F800003C
:1039500040F40040C9F80000204601F057BE50E88E
:10396000020F216820F0400041E80202002A70475F
:10397000002002F00BBA012202F010BB0123FFF776
:10398000DFBB04210162D4F8900040F00200C4F8CB
:103990009000704702220262D4F8902042F00402A4
:1039A000C4F89020704701220262D4F8902042F0BF
:1039B0000102C4F890207047B0F85C10FEF7F8BE22
:1039C00000222B460090204603F03EBB608DB0F5F0
:1039D000807F7047886940F0080088617047002543
:1039E000C16142681A40426084F8411084F8405036
:1039F00084F842507047096801F00F0152F8211015
:103A0000B0FBF1F07047F26F22EA114289B2114324
:103A1000F167704748EA0001EA7895F8240041EA26
:103A20008258504720F4004008602046704741E823
:103A30000002002A7047044690F88400012870476D
:103A4000016000200021A06594F8560002F0BBB987
:103A500013460A46014670470446002020220123EF
:103A60000125ADF806008DF8050070472020C4F848
:103A70008800C4F88C0000207047016851E8001FDE
:103A8000026870472068416821F490414160816874
:103A90007047204602F06ABE2046B4F85C10FEF77C
:103AA00087BE02F0010901F480784FF0000B7047E7
:103AB0003860FDF7D9BAD8F8000040F40040C8F8E3
:103AC0000000204601F0A2BD41E80202002A704732
:103AD00011438160204602F027BE4DF808ED01F049
:103AE000FCFB01205DF808EB00F026BF01251E4617
:103AF00017468A4684F84050FDF7B6BA2068390A5E
:103B00004A46816220464146FFF710BC20464146A6
:103B10004A46FFF70BBC204631462A46FFF730BB2A
:103B2000411B032002297047016841F48041016074
:103B30007047CA21F9605321F9603968AA6AB2F561
:103B4000807F7047C2EBC202C2F34C425A437047B7
:103B5000016851E8001F026841F0400142E800138B
:103B6000002B70478146009020464FF4004101220F
:103B70001923FFF78FBB4FF400510160201D03F0A4
:103B800007BD00223346FCF789BC608D51464FF0DB
:103B900000732085C2B22046009570476564C4F862
:103BA00024B06563A4F82A8088465146704726856C
:103BB000009520465146FF224FF080737047C4F8AD
:103BC0009000FDF751BA84F82C0057F80C0C00F463
:103BD0004076B6F5807F70472046314601F096BCAE
:103BE00000902046FFF740BB214600F11C05284607
:103BF00003F080BCBE21212201230125FFF7A0BADA
:103C0000FF224FF0807320850020009020467047EF
:103C10004A46FFF770BB49EA084141EA0028A87804
:103C200050470446807901287047016851E8001F19
:103C3000026821F0100142E80013002B704794F84D
:103C400040000128704740F2FF1002F07DB90146A4
:103C50002846FCF773BB4FF400706064704720681F
:103C6000F9B20022434681622046704721F4085190
:103C7000396002217964B6F5807F7047204601F0F3
:103C800073BC016851E8021F026821F0010142E89B
:103C90000213002B70478DF8060049F2C140ADF8C1
:103CA0000400704701463046FCF7BEBA416841F453
:103CB00080414160704721F4885139600121796465
:103CC000B6F5807F7047002060712046FEF742BC49
:103CD000002084F884002046FEF76ABF40F61F10DB
:103CE0000E2102F069B90546D8E904063146FCF711
:103CF000EDBA002084F84000204670472DE9FE43CD
:103D00001C4616460D46804627A3012000210122AD
:103D10004FF0000903F004FA26A30120002101223C
:103D2000CDE9006403F0FCF92B4FFF217C702B4C94
:103D300087F802902046FCF765FAFF2DBD8004D875
:103D4000264841462A46FCF744FA25A303200021D1
:103D500001223E700095002703F0E2F9274E25A5C9
:103D6000402F13D0E05D002100222B46009003205D
:103D700003F0D6F907F00F000F2805D1032000212A
:103D80000022334603F0CCF90137E9E71B4B03204F
:103D90000021002203F0C4F90120002103B0BDE896
:103DA000F04303F019BB00BF4F6E5278446F6E654D
:103DB0000A0D00005273736956616C75653D256488
:103DC0002064426D2C20536E7256616C75653D25E2
:103DD0006464420A0D00000030000020040300204B
:103DE0007061796C6F61642E2073697A653D25641A
:103DF000200A0D002530325800000000137D000815
:103E000080B506A3FFF71EFC8748022181700120C0
:103E10000021BDE8804003F0DFBA00BF4F6E52784A
:103E20004572726F720A0D0010B507A301200021C0
:103E30000122012403F074F97B48002184700120E1
:103E4000BDE8104003F0C8BA4F6E527854696D65F2
:103E50006F75740A0D00000080B506A3FFF7F2FB32
:103E600071480321817001200021BDE8804003F0EA
:103E7000B3BA00BF4F6E5478446F6E650A0D0000F0
:103E800080B506A3FFF7DEFB67480421817001209F
:103E90000021BDE8804003F09FBA00BF4F6E547808
:103EA00054696D656F75740A0D00000010B56A4C99
:103EB0004FF400712046FDF7C9F8FFF763FC5A483C
:103EC0000C30BDE8104003F02DBB00BF704780B53B
:103ED000FEF72EFC00200121BDE88040FDF766BB07
:103EE00080B5FEF725FC0448012101600120BDE8F2
:103EF0008040FDF739BB00BF880400587047FEF7CB
:103F0000FBB980B5FEF7F8F9BDE8804003F058BD75
:103F10007047000070B5434DE86A8047424CA07876
:103F200004283FD8DFE800F01903032B290040489C
:103F3000007810B3E86DAE6A8047A1680844C830C5
:103F4000FCF743FF3B4BFFF77DFB3B483B493246C9
:103F500001604021BDE8704010473548A1880278D3
:103F60007AB1F9B139493A4B0A689A421BD00968CB
:103F7000324A91420BD1002101702C4B0AE030A350
:103F800008E079B131492D4E0968B14227D00121AD
:103F9000304B0170FFF756FB696B40F6B830BDE857
:103FA0007040084770BD04F10C0003F0F1FA2A4C90
:103FB0004FF4007100222046FDF750F8FFF7E2FBB6
:103FC000E86DAC6A8047C830FCF7FFFE23A3FFF71B
:103FD00039FB184BFFF736FB174818491EE004F170
:103FE0000C0003F0D5FA1C4C4FF40061002220466F
:103FF000FDF734F820464FF40071FDF727F8E86D1F
:10400000AC6A8047C830FCF7E0FE17A3FFF71AFB45
:1040100018A3FFF717FB084806F5C06101604021AF
:10402000224697E7847B000830000020E17C0008EE
:1040300018000020047D00080404002050494E4769
:1040400052782073746172740A0D0000040300201A
:10405000504F4E47F27C0008000400482E2E2E5090
:10406000494E470A0D0000002E2E2E504F4E470A93
:104070000D000000536C6176652020547820737425
:104080006172740A0D000000FCF7C6BBFCF7E6BBCA
:10409000FCF7EABBFCF7EABBFCF71CBCFCF71CBC5A
:1040A00070B53C21214A01EA90001E4908581E497A
:1040B000FFF7A1FC1E49B0FBF1F4FDF769FAB0F57A
:1040C000007F09D11D49002003280FD031F81020AE
:1040D00094420DD90130F7E716490020032805D096
:1040E00031F81020944203D90130F7E7002502E0AF
:1040F000114951F82050124E306820F00700284333
:10410000FFF745FB0446306800F00700A84204BFF3
:10411000002070BDFCF7A8FF001B032824BF03206C
:1041200070BDF0E7447B000808010058307A0008B1
:1041300040420F001C7A0008247A0008167A000812
:104140000040005870477047FFF707BB00207047DA
:1041500000207047FFF701BBFFF7FFBA70477047B9
:104160007047FFF7FABAFFF7F8BA00000148FDF709
:1041700063BF00BF240700200928014698BF09211A
:10418000CAB20A23B2FBF3F202EB8203A1EB4303B0
:10419000591A084440EA0210C0B270472DE9F041B4
:1041A000114E80463068400619D43068002701243B
:1041B00040F080003060FCF757FF05463068E1436F
:1041C00041EA9010C0070BD1FCF74EFF401BB0F541
:1041D0007A7FF3D90327002488F82D70EEE70027B3
:1041E000F8B2BDE8F08100BF0C280040B0B5124D18
:1041F000044655F80C0C20F0800045F80C0C28689B
:10420000800606D4FEF75EF870B1032084F82D0016
:10421000B0BD286820F020002860FEF753F828B1D0
:10422000032084F82D0002E00020B0BD00202968A2
:1042300041F020012960B0BD1828004001207047DE
:1042400080B501F0A1FA0438C0B2032884BF002071
:1042500080BD0349C00021FA00F0C0B280BD00BF9C
:104260000201000380B501F0E3FA033080BD0000D5
:10427000F8B5F44EEC4F00253446BD65C7E901554D
:104280007D7001C4184801F02FFBBD8101F0E5FCF1
:104290000020002101F09DFB01200021042201F0FB
:1042A000DDFD4FF6FF704FF6FF71FFF7A0FA01F04A
:1042B0000BF80E4B20464FF0FF310022009503F023
:1042C0009FF8009506F11C05094B4FF0FF310022C5
:1042D000284603F095F8204603F05AF92846BDE831
:1042E000F84003F055B900BF1D46000849460008D4
:1042F0002D4600087CB58D4C00208DF807000090FD
:10430000B4F85400411E072927D9102800F0B080C6
:10431000202800F0AF80402800F0BE80802800F008
:10432000C780B0F5807F00F0CC80B0F5007F40F012
:10433000E68091A3FFF701FA01F026FA042840F085
:10434000CA80C7487E4CFFF716FCFFF711FB2068B8
:10435000002800F0D4804068CFE0DFE801F00416C8
:10436000D052D0D0D07FBE48754CFFF704FCFFF789
:10437000FFFAFFF7EDFE012808BFFFF7E4FE206813
:10438000002800F0BC800068B7E0B5486C4D4FF4E1
:104390008051016005F11C0003F0FAF8607880B9E3
:1043A000FFF7E6FA40F60210002101F005FE40F6A4
:1043B000441001F0E9FA40F0020140F6441001F027
:1043C000FBFD72480DF10701FF2201F019FA04F11B
:1043D000240001F0DDF92868002800F0908086684C
:1043E000002E00F08C8094F82400012840F0888092
:1043F00094F9313094F930209DF807106348B047A4
:104400007CBD59A3022000210122002502F088FE74
:10441000A06D002873D0574EC0F3074140F603103B
:10442000B04794F8591040F60410B04794F858106B
:1044300040F60510B04740F6021001F0A5FA40F032
:10444000010140F60210B04740F2622040F26221C2
:1044500000220023A56501F0F3FA7CBD3FA3FFF71E
:104460006CF9FFF773FE012849D1FFF777FE7CBD99
:1044700037A30EE0324D05F11C0003F089F8607897
:1044800008B9FFF775FA2868C8B3C068B8B38047A1
:104490002CA3FFF752F97CBD25A3FFF74EF96078F6
:1044A00008B9FFF765FA2648006840B3006924E0C0
:1044B000FFF75EFA2248006808B38169F9B100206D
:1044C00007E0FFF755FA1E480068C0B18169B1B135
:1044D000012088477CBD01F057F905280FD16048BD
:1044E000174C4FF48051016004F11C0003F050F8A8
:1044F000FFF73EFA206810B1C06800B180477CBD6C
:10450000E06B694601F0F0F800984FF47A7194F985
:10451000292000F5FA7090FBF1F09DF8071043B2E6
:1045200028688468F148A0477CBD00BF0C060020C5
:104530004952515F4352435F4552524F520D0A0058
:1045400070000020484452204B4F0D0A000000002C
:10455000484452204F4B0D0A0000000053594E436F
:10456000204F4B0D0A000000505245204F4B0D0AC2
:1045700000000000B95F00084952515F52585F5473
:10458000585F54494D454F55540D0A00040500200D
:104590002DE9F0418AB01C4615468846074600F0D2
:1045A0009CFE0020002600F0C7F9384601F066FBAB
:1045B000012041464FF416720023CDE90266CDE991
:1045C0000466CDE90666CDE908600320CDE90080E8
:1045D000002000F0F9F9002000F056F8FFF742FE45
:1045E000FCF7F3FB02F026FF0646304602F02CFFF4
:1045F0000746A04203D201F04FF9A842F5DD00259D
:10460000A74228BF012500F068FE28460AB0BDE891
:10461000F08101207047012070470000E949A1F8AE
:104620005400FFF767BE00BF0C0600200C484FF493
:1046300080510160B548006810B1C06800B1004702
:10464000704700BF7000002005484FF40051016022
:10465000AE48006810B1406800B10047704700BF25
:104660002804004880B500200021FFF7C0F8BDE80D
:10467000804001F0DFB801F087B901F091B980B551
:1046800001F00AF980BD0000B0B50446FFF75EFDF9
:10469000012802D1FFF75EFD05E040F2622040F202
:1046A0006221FFF7A4F82CB19848FFF79DFA28463D
:1046B00002F038FF8B484FF48051C24CFFF7C0F92D
:1046C00061786FF07F40A268002908BF9001BDE8C3
:1046D000B04001F003BB00BFB0B50446FFF736FDA4
:1046E000012802D1FFF736FD05E040F2622040F2DA
:1046F0006221FFF77CF82CB18448FFF775FA284651
:1047000002F010FF77484FF48051AE4CFFF798F954
:1047100061786FF07F40A268002908BF9001BDE872
:10472000B04001F0E7BA00BF2DE9F84F8B46814653
:1047300040F2012040F20121FFF759F869484FF497
:104740000051DFF8A4810160012198F8560001F0C2
:104750003AFB98F8000098F8511081F0060180F0BB
:10476000010050EA010640F6890018BF012601F059
:104770000BF900F0FB0040EA860140F6890001F0E9
:104780001BFC98F80000042800F29280DFE800F09B
:10479000031603192000FFF7D9FC012825D10DF1DC
:1047A000030248465946FFF7DCFC002800F08D80E4
:1047B00050A3FEF7C2FF0320BDE8F88F88F81FB0B2
:1047C00015E00221404600F80E1F80F80CB010E002
:1047D000464800215A464B468AB11E78013AF643B4
:1047E00003F8016B00F8011BF6E788F816B008F132
:1047F0000E0001F0C5F948465946002256E03B4EEE
:104800004FEACB07002007210022974215D0C2F3C0
:10481000C70421EA0203013219F8044024FA03F321
:1048200021EA020403F001035840C3B2A340C2F3DB
:10483000C704355D2B433355E7E7C10145460BF10E
:10484000010941EA8011C0B2B0FA80F0400941EAA2
:10485000401006F80B00022005F80E0F284685F8D8
:104860000C9001F08DF9DFF888A0F1200021D047ED
:10487000F0200021D047D5F83A40E121642C08BF50
:104880007021F320D0470421642C08BF1D21F220A1
:10489000D0474FEA5B11F420D047B81CC1B2F520D5
:1048A000D0475FFA89F130466FF07F4201F088F817
:1048B0001648D8F80410041D204602F01BFE2046BE
:1048C00002F030FE0020BDE8F88F9DF8030088F864
:1048D000160008F10E0001F053F99DF80310484648
:1048E0008BE700BF180400480C06002004050020D8
:1048F000B95F0008526164696F53656E64204F763A
:10490000657273697A650D0A00000000700000206E
:1049100001F0B4B9012802D1DF48C17705E0DE48D3
:10492000427D012A18BF70478175CA480170DA4874
:104930000E3001F025B900BFB0B5D74D0446287040
:10494000FFF70EFC052C14D8DFE804F0050B130369
:10495000030502200EE00020002401F065F96C73CD
:1049600006E0012001F060F9287B697B814206D1D5
:10497000B0BD032001F058F900206873B0BD687322
:10498000002818BF0120BDE8B04000F001B800BF0A
:1049900010B50446C048447304730120FFF7CCFFF0
:1049A00014214FF4E860002C18BF342101F004FBFF
:1049B000242140F24170002C18BF4421BDE8104072
:1049C00001F0FABA0C0600202DE9F04F85B0DDE9C0
:1049D0001185DFF89CBA179C1F4691468A46064609
:1049E0008BF80140B8F1000F08BF4FF0FF35FFF71B
:1049F000A9FB9849002C10980F9C0D7018BF00203F
:104A0000002E6DD0012E00F0B280052E40F01E81E8
:104A100000900120884601F0CDF9092000275E466C
:104A20008BF844004FF4487006F8387FCBE90F90BC
:104A3000504600F097FE5D4605F80E7F85F837007A
:104A40004FF480506860E00068800120A5F80900FC
:104A500098F8000028720520FFF76EFF304601F03D
:104A600027F8284601F08CF842F2B270CDF80E70AB
:104A7000ADF81270ADF80C0003A801F0BAF9FFF719
:104A8000E2F8764E40F6B800B047754D00F0EF0101
:104A900040F6B800A84740F6B9000421A84740F600
:104AA0009B00B04700F0E30000F1080140F69B00D6
:104AB000A84740F2D160B04740F0180140F2D16001
:104AC000A84740F2AC60B04700F08F0000F1500101
:104AD00040F2AC60A84700994FF4FA50484343E0D5
:104AE00004460020002701F065F90B205E46CBF854
:104AF0003C908BF84400504606F8387F00F032FEB8
:104B00005D46139905F80E7F85F8370088F001009F
:104B1000AF71E87141F60400A8800F98C00068806A
:104B20000120A872002918BF6FF00D006872494873
:104B30000078287200F0D1FB0020FFF7FDFE304620
:104B400000F0B6FF284601F01BF8C120CDF8077031
:104B50008DF80B70FFF79FF801A801F04AF9FFF7F5
:104B600072F84FF4FA506043B0FBF9F06CE000903B
:104B700000205D464FF0000B01F01CF93649012082
:104B80002E4622468AF0010306F8380F0C2C11F845
:104B90000A10B77686F8189006F81A8C71766FF0BE
:104BA000040198BF0C2251FA89F10229169928BFF5
:104BB000224626F81C2C344689F00C0206F8171CF5
:104BC000139906F8181C2349097806F8191CA9F14D
:104BD0000B01022938BF4FF0010BBAFA8AF104F831
:104BE0002A0D1A434909B2FA82F201EA0B01AB46D7
:104BF00052091143F176FEF770FF304600F058FF7E
:104C0000204600F0BDFF0098C0B200F034FF40F62F
:104C1000A30000F0B9FE00F0010140F6A30001F08E
:104C2000CBF916F8170C441E40F2367018BF012459
:104C300000F0AAFE00F0FB0040EA840140F236706A
:104C400001F0BAF94FF6FF70CBF8080005B0BDE8E7
:104C5000F08F00BF10000020907A000889590008EA
:104C6000B95F000870B5EB4E054601EB40000C46FD
:104C70004FF6FF7100220023B0654FF6FF7000F081
:104C8000DFFE96F85600002101F09DF828462146E7
:104C9000BDE8704001F048B80C0600202DE9F04353
:104CA00087B000279846154689460646CDE9047721
:104CB000FFF748FAD74C002D18BF0125657018BFC3
:104CC000B846012E40D0002E40F0B680D9F808003A
:104CD000002800F0AF80D9F80C00002800F0AA806E
:104CE00099F81E20082A00F2A580D9F8101004A80F
:104CF00002F0E2FAD9F80000002818BF012001F004
:104D000059F8002584F83850D9E90101E16399F890
:104D1000201084F8441000F025FD84F84500A573A8
:104D200099F81F2099F8213099F81E1099F822005F
:104D3000A2742375C900B9F80C20E174D2000028D0
:104D400022825AD0FF215AE0B9F83000002871D0F1
:104D500099F8320001280CBFD9F81450FF25D9F872
:104D60002800002818BF012001F024F85FFA88F01D
:104D700000F081FE012084F8380099F82C1099F891
:104D80002F0084F850100228B9F82D20A4F85120E3
:104D900005D306D10B390020022938BF012084F841
:104DA0005300012004F80E0FB9F830006574E0815B
:104DB00099F832002074B9F834006082FEF78DFE55
:104DC00004F12A0000F074FE204600F0D9FEE07CD9
:104DD000451E40F2367018BF012500F0D5FD00F0E9
:104DE000FB0040EA850140F2367001F0E5F84FF62D
:104DF000FF70002744F8060C1EE0D9F81410A175C6
:104E000099F82410022918BF022819D199F8230013
:104E1000A0F1F101022901D301280BD1904A00250C
:104E2000CDF808908DF80C5052F81C1B01A8FFF724
:104E30008BF958B14FF0FF37384607B0BDE8F08323
:104E4000607599F823002176E07503E0012065750F
:104E5000A4F8170000F041FA00200027FFF76CFDCE
:104E600004F1380000F024FE04F10E0000F088FE8A
:104E700004A800F0BEFFB9F81C0001F065F8B9F80D
:104E8000180000F0BDFD4FF4FA50D9F8081008FBE7
:104E900000F0B0FBF1F0A060CEE700BF2DE9FE4FBF
:104EA0001D46174688460446FFF74CF9149EDDF868
:104EB00030A0042C49D0DDF84090DDE90EB3012C80
:104EC00051D0002C40F09380FD4E0B2086F844001A
:104ED0002846C6F83CA04FF0000A34461D4604F8A8
:104EE00038AF00F03FFC06F80EAF86F8370001201F
:104EF000C6F83270B072B9F1000F18BF6FF00D0034
:104F0000707286F806A085F00100F07141F6040089
:104F1000B0804FEACB00708000F0DFF90020FFF78F
:104F20000BFD204600F0C4FD3046149E00F028FE24
:104F3000C120CDF807A08DF80BA0FEF7ACFE01A8AC
:104F400000F057FFFEF77FFE51E00420FFF7F4FC6E
:104F5000EC48022100F8381F16210175C0F810A096
:104F600000F0A6FD43E03746E64E012013990D9A66
:104F7000BBF10C0F06F80E0F86F84420264AF17498
:104F80002649337486F842A086F8129085F0010312
:104F90003446525D097886F8432071746FF004013D
:104FA0005A4651FA8AF198BF0C22022928BF5A4664
:104FB000F281AAF10B0100220229B5FA85F138BF6E
:104FC000012204F82A0F490911408AF00C021A4301
:104FD000B2FA82F25209114386F84510FEF77DFDC0
:104FE000204600F065FD30463E4600F0C9FD4046D3
:104FF00000F060FEC34C0E2184F8560040F61F10EE
:1050000000F0DAFF94F85600FFF7A9F86660BDE8F3
:10501000FE8F00BF0C060020907A000810000020D0
:10502000B0B514460D4600F029FE284600F042FEB9
:105030000546FEF753FE2846012100F0C4FE4FF45A
:105040007A70444300F000FF9E482146051D284623
:1050500002F050FA2846BDE8B04002F063BA00BF43
:10506000700000202DE9F04387B0074600201C4661
:1050700015460E46CDE90400FFF764F8032F00F251
:105080001281DFE807F0024382963068002800F0C2
:10509000DD80B27C082A00F2D980B16804A802F051
:1050A0000BF9F34F0020042287F838003168B873F9
:1050B000F963F17C87F84410B1693964B188BA7436
:1050C000C9003982B17C3875C800F874B07D0228F7
:1050D00003D0307D022840F0BC80707DA0F1F1014A
:1050E000022902D3012840F0B180764A4FF001082E
:1050F00001968DF80C8002CA01A8FFF725F8002858
:1051000040F0A480A7F817800020A7E0D84F012026
:1051100087F83800307887F85000707887F85100A9
:10512000B07887F85200F078022807D308D1307899
:10513000A0F10B010020022938BF012087F853009D
:10514000012007F80E0FB088F881B0793874F07933
:10515000B874307AF874FEF7C0FC07F12A0000F04A
:10516000A7FC384600F00CFD97F8436040F6890034
:1051700000F00AFC062E0CBF00F0FB0140F0040119
:1051800040F6890000F018FF8DE0306800285DD0FF
:10519000B0F57A7F5AD80320FFF7CEFBB44802213E
:1051A000162200F8381F31680275016100F080FC9A
:1051B00079E0B27C082A49D8B16804A802F07CF8EA
:1051C0003068002842D042F2107188420CD8A848BA
:1051D00003214FF0020880F8381081733168C163F1
:1051E000F17C80F844100EE0A1484FF0000880F8F0
:1051F000388080F80E803168C163F17C80F84410FB
:10520000316889080164B088994F0421B974C000DD
:1052100000213882B07C3975C000F874B07D022856
:1052200002D0307D02281ED1707DA0F1F10102294B
:1052300001D301280AD1234A4FF0010901968DF8C4
:105240000C9002CA01A8FEF77FFF90B14FF0FF302B
:1052500033E0707DF875B07D3876307D787500F07C
:105260003CF800200CE0707DF875B07D3876307D1C
:1052700002E0A7F817900020787500F02EF840465D
:10528000FFF75AFB07F1380000F012FC07F10E009F
:1052900000F076FC04A800F0ACFD308A00F054FE6B
:1052A000B08900F0ADFB284600F004FD704D85F894
:1052B0005600FEF754FF6C60002007B0BDE8F08395
:1052C0000C0600207000002080B5042000F048FD8E
:1052D0000220BDE88040FBF778BD002000F056BDFD
:1052E00080B56348002190F8560000F06CFD4FF443
:1052F000C0704FF4C071FEF77AFABDE8804000F04C
:1053000075BB00BF0C060020F0B50DF1140C089E13
:1053100001289CE8901010D000285FD10CEB04000D
:10532000002E18BF02302021002F18BF182101EBDA
:10533000C0004FF47A71484352E019B9A2F10B0052
:10534000022804D30020012908BF0C2A00D1012023
:105350001425002F18BF0025A5EB8205002E6FF045
:10536000070618BF1035072A05EBCC0528BF0835FE
:105370009700002818BF06EB82070C26072A38BFC3
:1053800097003846002DC8BF284401380C250C2C46
:1053900090FBF7F088BF2646571F022F28BF2646EE
:1053A000072A38BF0E25AC190433023A00FB03402C
:1053B0008000013090404FF47A725043174A515C9C
:1053C00000220A290CD8DFE801F006101316191B79
:1053D0001D0B1F22250041F6846201E001220020FE
:1053E00010440138B0FBF2F0F0BD43F60952F7E784
:1053F00047F61222F4E74FF22442F1E70A4AEFE7B8
:10540000084AEDE7064AEBE742F6B102E8E745F263
:105410006112E5E74AF2C322E2E700BF907A000892
:1054200020A1070090D0030048E8010010B500F06B
:1054300041FC0446FEF752FC2046012100F0C3FC6B
:10544000BDE8104000F000BD80B50948012190F88A
:10545000560000F0B8FC4FF4D7602D2100F0ACFDF1
:1054600000F0F7FC0348BDE8804000F0DFBC00BF5F
:105470000C060020FFFF0F0000F09EBD00F0A8BD4D
:1054800010B50446FEF708FE012818BF10BD40F60F
:10549000231000F079FA00F0F90040EA040140F628
:1054A0002310BDE8104000F087BD000000210D4A28
:1054B000B0F5803F38BF012138BF00040901B0F1C9
:1054C000807F3CBF08310002B0F1805F38BF0431FB
:1054D00038BF0001000F81F01F01105C081AC0B234
:1054E000704700BF107C0008074940F441700A680B
:1054F00022F040020A6008604FF4B8504860086823
:1055000040F040000860704700000158B8B54E4CAC
:1055100064232268FEF716FB294B0092009A3AB1E9
:10552000009A013A00921A689207F7D5002201E02A
:1055300001228260FF251D7164252468C4EBC40428
:10554000C4F34C446C430094009C34B1009C013C77
:1055500000941C68E407F7D001E0012282605868DB
:1055600008701046B8BD00BF18B5374C64232268D8
:10557000FEF7E8FA124B0092009A3AB1009A013A0B
:1055800000921A689207F7D5002201E0012282609A
:10559000197121686424C1EBC101C1F34C4161431D
:1055A0000091009931B10099013900911968C9073A
:1055B000F7D001E0012282605868104618BD00BF94
:1055C0000800015881B00179012915D11E490968E7
:1055D00001EB4101C1F34F31009109490A6822F4FE
:1055E00000420A60009A013A0092009A002AF9D11A
:1055F0000A6842F400420A6001B000F007B800BF38
:1056000090040058ED48FCF7F9BE00BF81B00E4988
:105610006422096801EB4101C1F34B415143009100
:105620000A490A68009B53B1009B9208013B009312
:105630000B6802EA5302D207F3D1002002E00221F4
:105640008160012001B0704714000020140400584C
:10565000E0B500F07F000DF1070101228DF8070091
:10566000892000F09BFC8CBDE0B51A49884204D328
:10567000E1208DF80600E92023E01749884204D391
:10568000D7208DF80600DB201BE01449884204D3A4
:10569000C1208DF80600C52013E01149884204D3CB
:1056A00075208DF8060081200BE00E49884204D356
:1056B0006B208DF806006F2003E029208DF806008E
:1056C0002B208DF807000DF106019820022200F032
:1056D00065FC8CBD01E9A43581F8A9328144E52D32
:1056E000010B6B1B41FC54192DE9F843194C814601
:1056F00040F607008846A04706464FF4D660A0470C
:10570000074600F00F0540F2B160A0473A0740EAB3
:105710000520114948BF0843C6F3C1010FA2012368
:10572000515C06F00702013291400D4AB2FBF1F1E3
:10573000B1FBF9F2082A38BF02235A43042A38BFC2
:105740000423594349094843C011C8F80000BDE883
:10575000F88300BF8959000800F0FFFF04080A0C15
:105760000048E80160B1074A0021B02907D053582A
:1057700008318342F9D9501810F8040C7047FEE73D
:105780001F207047947A0008F3484078704700BFA4
:105790001CB504460DF105011420032200F0E6F8C3
:1057A000ED4881780129217010D009BB9DF80500D2
:1057B0009DF806109DF8072020710020A060484247
:1057C0004008A0715042400860711CBD40689DF8BF
:1057D000071020619DF805004042400820739DF9A4
:1057E000060002308008607348424008A0731CBD68
:1057F00020460021142201F068FD0F2020701CBDFE
:105800007CB50E46044600200DF1070115468DF8C3
:105810000700304600F04CF83278AA4284BF0120DD
:105820007CBD9DF80700214600F092F800207CBD69
:10583000012070477CB50020019040F6E20000F0A6
:10584000A3F8144E044600F0FE0140F6E200B04713
:1058500040F6E50000F098F8054600F07F0140F6BC
:10586000E500B0476FF07F4000F038FA01A940F63C
:105870001900042200F094F8002000F087FA40F6A6
:10588000E2002146B04740F6E5002946B0470198BE
:105890007CBD00BFB95F0008E0B50DF10701152020
:1058A000012200F063F89DF80700404240108CBDD3
:1058B000BCB50C4605460DF106011320022200F08E
:1058C00055F8E2488178012907D1C078012804D130
:1058D00040F2027000F058F801E09DF806002870D0
:1058E0009DF807002070BCBD10B508B1EF49886075
:1058F000FDF750FE0220FFF7C3FDEC4C00202070A6
:10590000002000F043FAFEF7C9FB01280CD101206A
:10591000402100F077FA40F61110002100F04CFB16
:105920007F20FFF795FE09E040F61110202100F0DE
:1059300043FB40F61210202100F03EFB40F61F1002
:105940000E2100F039FBFEF7A5FB0120607010BDB1
:1059500010B5FEF77DF8EFF31084EFF3108072B608
:105960001648FCF713FE84F3108810BD10B5FEF73F
:105970006FF8EFF31084EFF3108072B60F48FCF766
:10598000D3FC84F3108810BDE0B501460B480DF13F
:1059900007020123FCF726FE9DF807008CBD00BF1F
:1059A00010B5FEF755F8EFF31084EFF3108072B6E0
:1059B0000248FCF717FE84F3108810BD5C07002036
:1059C00010B5144600F044F92046BDE8104000F040
:1059D0002DBAE0B58DF807108DF806000DF106011F
:1059E0008F20022200F0DAFA8CBD000080B5C520BD
:1059F0000021002200F0D2FAED480721417080BD5D
:105A0000E0B540BAADF80600E948807800B18CBD39
:105A10000DF1060140F2BE60022200F0D9FA8CBD01
:105A2000E0B540BAADF80600E148807800B18CBD21
:105A30000DF1060140F2BC60022200F0C9FA8CBDF3
:105A4000E0B58DF80520120A8DF80310090A8DF8CB
:105A50000100000A8DF807301B0A8DF804208DF82C
:105A600002108DF800006946082008228DF80630E3
:105A700000F094FA8CBDE0B58DF807000DF1070138
:105A8000A020FDF778FF9DF8070040280ED34108BD
:105A90000020CAB2202A02D301309108F9E700EBB6
:105AA000C100C1B240F2067000F086FA8CBD000061
:105AB0001CB5E44904460020CDE90000207889782F
:105AC000814202D000F0B0F82178032942D8DFE803
:105AD00001F00222262DA089204A0023ADF8030000
