:020000040800F2
:10000000F01000204D0100088B35000883300008F7
:1000100089350008DD080008A9710008000000000B
:10002000000000000000000000000000ED5C00087F
:100030000F0A000800000000BD3D0008D95E00085E
:1000400067010008670100082960000867010008CF
:1000500067010008670100086701000867010008E0
:1000600067010008670100086701000867010008D0
:1000700067010008670100086701000855090008CA
:1000800067010008670100086701000867010008B0
:1000900067010008670100086701000867010008A0
:1000A0006701000867010008670100086701000890
:1000B0006701000867010008670100086701000880
:1000C0006701000867010008670100086701000870
:1000D00067010008FD6D000867010008670100085E
:1000E0006701000867010008A53E000867010008D5
:1000F0006701000867010008670100086701000840
:100100006701000867010008015300086701000843
:10011000670100086701000867010008670100081F
:10012000670100086701000867010008670100080F
:100130006701000867010008DFF80CD000F05AFBE7
:1001400000480047D1710008F010002006488047A1
:1001500006480047FEE7FEE7FEE7FEE7FEE7FEE7AC
:10016000FEE7FEE7FEE7FEE725600008390100082C
:100170002DE9F05F0546002092469B4688460646DC
:10018000814640241BE0284641464746224600F06F
:100190008CFA53465A46C01A914110D3114618465C
:1001A000224600F073FA2D1A67EB01084F462246EB
:1001B0000120002100F06AFA17EB00094E41201ED1
:1001C000A4F10104DFDC484631462A464346BDE837
:1001D000F09F40EA01039B0703D009E008C9121F02
:1001E00008C0042AFAD203E011F8013B00F8013BF1
:1001F000521EF9D27047D2B201E000F8012B491E1D
:10020000FBD270470022F6E710B513460A460446B3
:100210001946FFF7F0FF204610BD421C10F8011BE5
:100220000029FBD1801A7047F0B480EA0102D40F94
:100230004200B2EB410F02D20246084611464A0084
:1002400042D0C30DDDB2C1F3C752AD1A202D35DA4D
:10025000C1F3160141F4000204B15242C5F1200677
:1002600002FA06F12A411044B3EBD05F23D0C4B1A7
:10027000012DA0EBC35009DCF0BC4FF0004202EAB4
:10028000C352DBB200F5000000F028BA400000F1D4
:10029000807000EBC350A0F1807040EAD17049003B
:1002A00009E0490841EAC071A0EBC35000F5000025
:1002B000400800EBC350F0BC00F007BA61420122D5
:1002C00002EB4101001BF6E7F0BC704781F00041F2
:1002D000AAE780F00040A7E780EA010210B502F02B
:1002E0000043400022D04A001FD0010E01EB1261F2
:1002F000C0F35600C2F3560240F4000042F400027C
:10030000A0FB022000047F39140400D0401C50EAF6
:10031000124001D44000491EC2B20C0604EBD010BA
:10032000401C4008802A02D003E0002010BD20F0CD
:100330000100002900DA0020184310BD30B480EA23
:10034000010202F0004530F0004221F0004013D0DD
:1003500090B1C30DD40DC2F31601C0F31600E41A18
:1003600041F4000140F400027D34914201D3641C49
:1003700000E04900002C02DA30BC002070474FF446
:1003800000000023914201D3891A034340084FEA39
:100390004101F7D151B1914202D14FF0004105E046
:1003A00002D24FF0010101E06FF0010103EBC450F4
:1003B000284430BC00F089B92DE9FE4F81EA0304DE
:1003C00004F0004421F0004100944FF0000B23F0B2
:1003D000004350EA01045ED052EA03045BD0C3F349
:1003E0000A54C1F30A552C44A4F2F3340194A0FB3F
:1003F0000254C1F3130141F48011C3F3130343F416
:10040000801301FB024400FB034E840A970A44EA6E
:10041000815447EA8357A4FB076802958D0A05FBC0
:1004200007854FEA932C04FB0C542705029D4FEAE5
:10043000065847EA1637B5EB08056EEB070C870E32
:10044000920E47EA811742EA8312A7FB0201B6EB3C
:100450000B0164EB00042B0D43EA0C335E1844EBF4
:100460001C50DA465146E7FB0201C5F313044FEA7C
:100470000B3343EA14534FEA0432019C43EA060368
:10048000A4F10C040294009CCDE900B400F063F9DF
:1004900003B0BDE8F08F00200146F9E72DE9F04DEB
:1004A00081EA030404F0004B21F0004514464FF0AC
:1004B000000A23F0004150EA050220D054EA01026C
:1004C0001DD0C5F30A570246C5F31303C1F3130049
:1004D000C1F30A5640F4801543F48013A7EB0608D5
:1004E000101BD64608F2FD3873EB050002D308F165
:1004F000010801E092185B41B8F1000F03DA002017
:100500000146BDE8F08D00204FF480110646844678
:100510000EE0171B73EB050705D3121B63EB0503F6
:1005200006434CEA010C49084FEA300092185B413F
:1005300050EA0107EDD152EA030012D082EA04002A
:1005400083EA0501084305D0101BAB4106D2012206
:10055000002306E000224FF0004302E06FF00102AA
:1005600053101AEB06004CEB085110EB0A0041EB5C
:100570000B01BDE8F04D00F0DFB8002801DBC0F151
:100580000040002901DBC1F10041814201D8012076
:10059000704700207047002801DBC0F100400029AF
:1005A00001DBC1F10041814201D2012070470020EE
:1005B0007047C10F80EAE0700844CA079623002103
:1005C00000F08CB896230022114600F087B80EB5D3
:1005D000C10F80EAE0700844CA07002140F23343AB
:1005E0008DE80E000A460B4600F0B5F803B000BDDA
:1005F00070B5C1F30A5201F000450024C1F31301A4
:1006000040F2FF3341F480119A4201DA002070BDBC
:1006100040F233439A42A2F2334203DC524200F0EA
:1006200044F800E090402C43F1D0404270BD00F00F
:10063000004230F000400AD0C10D01F56071C0F3F6
:10064000160042EA0151C2084007114370470020DA
:100650000146704701F0004330B421F0004150EAF8
:10066000010206D00A0DA2F56072C1F31301002A3F
:1006700002DC30BC00207047440F44EAC104C100D2
:10068000E01830BC00EBC25000F01FB8202A04DB99
:10069000203A00FA02F1002070479140C2F1200395
:1006A00020FA03F3194390407047202A04DB203AD4
:1006B00021FA02F00021704721FA02F3D040C2F182
:1006C000200291400843194670470029A8BF70478F
:1006D000401C490008BF20F00100704710B4B0FA78
:1006E00080FC00FA0CF050EA010404BF10BC704713
:1006F00049B1CCF1200421FA04F411FA0CF118BF2D
:10070000012121430843A3EB0C01CB1D4FEA0061FB
:100710004FEA102042BF002010BC704700EBC350CE
:1007200010440029A4BF10BC7047401C490008BFFA
:1007300020F0010010BC704710B5141E73F10004C6
:1007400008DA401C41F1000192185B411A4301D1C3
:1007500020F0010010BD2DE9F04D92469B4611B1ED
:10076000B1FA81F202E0B0FA80F220329046FFF74F
:100770008DFF04460F4640EA0A0041EA0B0153464A
:100780005A46084313D0114653EA010019D0C8F164
:1007900040025046FFF789FF05460E46504659462F
:1007A0004246FFF773FF084305D0012004E02046CE
:1007B0003946BDE8F08D0020054346EAE0762C433B
:1007C00037430A986305E40AA0EB08000022FD0AFB
:1007D00044EA47540A3002D500200146E9E7010502
:1007E00010196941DDE9084500196941BDE8F04D7E
:1007F000A2E70000064C074D06E0E06840F0010368
:1008000094E8070098471034AC42F6D3FFF798FC01
:1008100088780008A8780008032819D8F8B50D4D85
:10082000C600294C2A4F082105F58070F040C2B25D
:100830002046B84708481021F040C2B22046B847C9
:1008400025FA06F02021C2B22046B847BDE8F8409C
:10085000002070470000010100010100162100285E
:1008600008BF0F21084670470020704770B586B05A
:100870000024059402F05CFD0320144ECDE90340F2
:100880000120114C02901020019001AD2046294614
:10089000B0472020294601902046B047082029462D
:1008A00001902046B0470A4D204620210022A8474B
:1008B000204610210022A847204608210022A847F0
:1008C000002006B070BD00BF00080048D10E00082F
:1008D000691000080120704701207047FEE7000002
:1008E000B0B586B01948016841F48041016000F05C
:1008F0009DF800F0A5F800F09DF803200121049078
:10090000002002910390059002F0F8FC02F0F6FC42
:100910004FF480500E4C019001AD2046294600F066
:10092000D7FA4FF4005029460190204600F0D0FA43
:1009300020464FF48051002200F096FB20464FF4F1
:100940000051002200F090FB06B0B0BD90080058A6
:1009500000040048014800F04BB900BF64060020C5
:1009600010B51049436C104C01F1640223F00303ED
:10097000C2640268A24238BF04F57E711944142390
:1009800081646FF00701A24251FA82F1B1FBF3F1E9
:1009900028BF0731012201F01F0102FA01F10165B0
:1009A00010BD00BF1C0802400804024010B5436897
:1009B00007490124543003F07F0301F14002013B59
:1009C00001EB830103F0030304FA03F30EC010BD2F
:1009D00000090240F0B500F14C0670CE656016B11A
:1009E000D0E91645656004688568D0E91060012784
:1009F00000F01C00102D07FA00F0706008466360DC
:100A000008BF1046A06008BF0A46E260F0BD70470C
:100A1000EFF3108072B6FEE7034801680268914266
:100A2000FBD1C843704700BF08280040064802F0C9
:100A300093BF00BF0448016841F0040101607047A2
:100A4000014802F014BF00BF042004E050B3B0B569
:100A500090F82510022927D1016800F140041CCC30
:100A60000D6803F01C0325F00E050D60256825F4C4
:100A7000807525600C6824F001040C60012101FAE6
:100A800003F35360D0E913235360426D32B113680E
:100A900023F480731360D0E91623536080F8251087
:100AA000002104E0012107E00421C16301210022AB
:100AB00080F82420BDE8B04008467047B0B590F8F3
:100AC000251002292BD10168D0E91032846C0D6801
:100AD00025F00E050D600D6825F001050D602168FB
:100AE00021F48071216002F01C01012202FA01F15F
:100AF0005960D0E913134B60416D31B10B6823F499
:100B000080730B60D0E916134B60002180F824102D
:100B100080F82520826B2AB19047002102E0042151
:100B2000C16301210846B0BD60B10068CB06026810
:100B300005D5C90254BF22F4801242F4801202602B
:100B40000020704701207047F8B54FF0010C0028D5
:100B500046D00368254A7E4F0446196802F5806531
:100B600021F00101196020490E1DB3423CBF002550
:100B7000C4F2020538BF07F580671F441420B7FB95
:100B8000F0F08700C4E910570025B3421D6038BF5C
:100B9000111D1C2202EA80000CFA00F008602046B9
:100BA000FFF7DEFE606804F148030ECB013803282E
:100BB0000D60536007D82046FFF7F8FE04F1540299
:100BC00007CA05604A60E563C4E91555E565C4E9EF
:100BD0000B55C4E90D5584F8245084F8255000E0E5
:100BE00001252846F8BD00BF040402400000024071
:100BF000F0B5D0E910230168042403F01C03166843
:100C00000D689C40344201D06F071BD402249C40E5
:100C1000344201D0AF071FD426FA03F4240735D598
:100C20002C0733D50C6824F00E040C60012101FA66
:100C300003F353600022C16380F8242080F825105C
:100C4000416B1FE00B689B0603D40B6823F0040381
:100C50000B605460016B15E00A68920606D40A68BE
:100C600022F00A020A60012280F82520002280F882
:100C70002420074A02F17C03994288BF02F5806272
:100C80001460C16A11B1BDE8F0400847F0BD00BF73
:100C90000400024000284BD0F8B5044602202B493E
:100CA00084F8250004F10806206801F1080268CEE6
:100CB0009042274A38BFA1F5806138BF02F58062B3
:100CC00014270244B2FBF7F29200C4E9101247F66F
:100CD000F07201689143016045EA030162693143A2
:100CE0001143A2691143E2691143226A1143026868
:100CF000114301602046FFF733FEA06804F148036A
:100D0000B0F5804F06BF00206060606800F07F058E
:100D10000ECB013803280D6053600BD82046FFF737
:100D200045FE04F15402002307CA03604A6005E04F
:100D3000012070470020C4E91500E0650020012172
:100D4000E06384F8240084F82510F8BD0004024014
:100D5000F8FBFDBFB0B5044690F82400012804BF9D
:100D60000220B0BD02F03DFC13D1022084F8250022
:100D70000020E0632068056825F001050560204635
:100D8000FFF728FE2068226B01684AB141F00E018E
:100D90000CE0002084F824008020E0630120B0BD36
:100DA00021F004010160016841F00A010160A16CB9
:100DB0000A68D20303D50A6842F480720A60616D42
:100DC00019B10A6842F480720A60016841F00101B9
:100DD00001600020B0BD81B00090009801B005F026
:100DE00051B900002DE9FC4F974A4FF0000890429E
:100DF0004FF0070208BF0222002400230092019155
:100E000031FA03F608BFBDE8FC8F012202FA03F6AF
:100E100016EA010E57D08E4A4FEA930CB0F1904F6C
:100E200052F82C9007D08B4ADDF800A0904208BF02
:100E30004FF0010A01E04FF0000A08F00C0B072107
:100E4000424601FA0BF80AFA0BF509EA0807AF4225
:100E50001BD17E49D1F8805025EA0E05C1F880509B
:100E6000D1F8845025EA0E05C1F884500D6825EAB2
:100E70000E050D604D6825EA0E054D60744951F868
:100E80002C5025EA080541F82C50032107689046AC
:100E900001FA04F50F212F43076002F01C0701FA45
:100EA00007F76FF0030101EA53020244116AB943E4
:100EB00011628168A94381604168B1434160C168A2
:100EC000A943C160019908F104080234013397E78E
:100ED0002DE9F84F5C4A5E4F4FF000094FF0010BCF
:100EE0004FF0000890424FF0070208BF0222002393
:100EF00000920D6835FA03F208BFBDE8F88F0BFACF
:100F000003F215EA020A00F099804E6806F0030C1D
:100F1000ACF10105012D19D8032404FA08F5846801
:100F200024EA050ECC6804FA08F444EA0E0484604E
:100F3000C6F3001404FA03FE446824EA020242EAFB
:100F40000E026FEA050E42605A000CE0032202FA1C
:100F500008F2BCF1030F6FEA020E424603D142468B
:100F60004FF0030C1FE0C4688D6804EA0E0495403E
:100F70002C43BCF1020FC46015D109F01C040F25ED
:100F800005FA04FC6FF0030505EA53060644356ACA
:100F900025EA0C0C0D6905FA04F444EA0C043462E9
:100FA0004E6806F0030C04680CFA02F204EA0E0420
:100FB000224316F4403F026040D09A0857F822C0FE
:100FC000B0F1904F05D0234C009DA04208BF0125F1
:100FD00000E0002509F00C040726A64005FA04F4F9
:100FE0002CEA0606BC46344347F82240174A174607
:100FF00012684D6842EA0A04EE0258BF22EA0A0467
:101000003C60AE027A6842EA0A0458BF22EA0A0447
:101010007C60EE03D7F8802042EA0A0458BF22EA37
:101020000A04C7F88040AD03D7F8842042EA0A04D6
:1010300058BF22EA0A04C7F88440674609F1040948
:1010400008F10208013354E700080048000800587E
:101050000800014000040048426902EA010391438C
:1010600041EA0341816170471823002A08BF282301
:10107000C150704703480078012808BF05F032B816
:1010800000207047FC05002090F84120202A03D161
:1010900090F84020012A01D1022111E0242280F899
:1010A00041200268136823F001031360136823F4DE
:1010B0008053136013681943734602F0D9FA9E46B1
:1010C0000846704790F84120202A03D190F840202C
:1010D000012A01D1022110E0242280F84120026877
:1010E000136823F001031360136823F4706343EA69
:1010F0000121734602F0BCFA9E4608467047000084
:1011000000B3B0B5044690F8410018B902F093FD61
:1011100000F056F9242084F84100D4E90003D4E912
:101120000212056823F07063012A25F001050560AD
:101130000361836823F40043836005D141F40041D7
:10114000816009E00120704741F40441022A816076
:1011500004BF4FF40061416041680F4A04F110057B
:1011600011434160C16821F40041C1602ECD11439B
:1011700041EA0321C160216A29430160016841F00D
:101180000101016000202021606484F84110206387
:1011900084F84200B0BD00BF008000022DE9F84F86
:1011A00002F0C2FA0CD1DDF828B0BBF1000F09D073
:1011B000DDF82C80B8F1000F04D002F0E2FC07D17A
:1011C000022502E002F0E9FC01252846BDE8F88F7F
:1011D00002F033FC02F068FC0028F6D122200C99C2
:1011E0000025F2B2002384F84100402084F8420038
:1011F000304802F075FC8346A0F5806002F092FC56
:1012000002F02BFC50B9012E02D002F01EFC28B9CE
:1012100002F0C7FC402102F0E2FA10B184F840501D
:10122000D2E702F075FB09D3FF205146FF224FF0B1
:1012300080732085CDF800B0204608E0608D5146CF
:101240004FF000732085C2B22046CDF800B001F007
:10125000BBFF0025FF26204604210022434602F062
:10126000BEFA0028B0D102F0C7FA12D188B12046E8
:1012700080210022434602F0B2FA0028A4D102F0F5
:1012800047FB02D302F035FC01E002F020FC01F044
:101290009BFF608D0028DED12046414602F05AFCBB
:1012A00000287FF491AF20682021444B02F039FBE5
:1012B0008BE700BF002400802DE9F84F02F034FADC
:1012C0000CD1DDF828B0BBF1000F09D0DDF82C807F
:1012D000B8F1000F04D002F054FC07D1022502E05F
:1012E00002F05BFC01252846BDE8F88F02F0A5FB63
:1012F00002F0DAFB0028F6D121200C990025F2B289
:101300004FF0807384F84100402084F842002A485E
:1013100002F0E6FB02F006FC02F09FFB50B9012E42
:1013200002D002F092FB28B902F03BFC802102F0CF
:1013300056FA10B184F84050D4E702F0E9FA04D329
:10134000FF20514602F0FEFB08E0608D00214FF0C7
:10135000007320850091C2B22046514601F034FF4F
:101360000025FF2602F079FB0028BBD102F06AFAC3
:1013700012D188B1204680210022434602F02FFA84
:101380000028AFD102F0C4FA02D302F0B2FB01E0B0
:1013900002F09DFB01F018FF608D0028E2D120468D
:1013A000414602F0D7FB00289CD120682021034B46
:1013B00002F0B7FA97E700BF0020008000E800FEC7
:1013C0002DE9F04395B004460FA81421FEF71AFF4B
:1013D00001A834210430FEF715FF20682049884217
:1013E0003AD14FF4401008904FF48070019001A85A
:1013F00000F0AEF808B1FFF70BFB022001F08CFF04
:1014000004204FF0040801F087FF4FF00009012687
:1014100012271020134CCDF84C800F90CDF8489037
:10142000119610970FAD20462946FFF751FD04F5A0
:1014300080602946CDF84C80CDE91169CDE90F6770
:10144000FFF746FD0848016841F4000101600068AB
:1014500000F400001490149815B0BDE8F08300BFAC
:10146000005C0040000400485800005880B503208C
:1014700000F050F800F00CFA054908600F2000F069
:1014800009F808B1012080BD00F006F8002080BDF9
:1014900010000020002070477047000000280CD486
:1014A00000F01F010122400902FA01F1034A42F84B
:1014B0002010BFF34F8FBFF36F8F704780E100E0C4
:1014C000002808D400F01F010122400902FA01F1AE
:1014D000014A42F82010704700E100E070B5134B5C
:1014E0004FF0FF351B68C3F30223DC1E83F00703B4
:1014F00038BF002405FA04F6B243042B28BF0423A6
:1015000005FA03F39943A1401143BDE8704005F08B
:101510004DBE00BF05494FF6FF030A681A4060F34D
:101520000A22034810430860704700BF0CED00E03A
:101530000000FA050548006800F4C060704700BF6D
:101540000248016841F4807101607047000400584E
:10155000F8B504468078544EC00742D0FFF7F0FF3C
:10156000FFF788FD0546D6F8F403C00506D4FFF75B
:1015700081FD401B0228F6D9032533E0606BD6F8C5
:10158000841001F44071814224D0D6F88410D6F83A
:10159000842042F48032C6F88420D6F8842022F4D5
:1015A0008032C6F8842021F4407289070146C6F8CB
:1015B00084200FD5FFF75EFD054641F28837D6F847
:1015C0008400800705D4FFF755FD401BB842F6D9CB
:1015D000D2E7616BD6F8840020F440700843C6F867
:1015E000840000252068C10702D0616802F0ADF9CF
:1015F000810702D5A16802F0A8F9810605D5216905
:10160000F26F22F440621143F167810502D5216A2D
:1016100001F0DDFF410502D5616A01F0D8FF010547
:1016200002D5A16A01F0D3FF410603D5606901F03C
:101630008FFE2068010603D5A06901F089FE2068AD
:10164000C10503D5E06901F083FE2068C1060CD511
:10165000E168F26F22F440720A43B1F5807FF267CD
:1016600003D1316841F08071316001040AD5216BEA
:10167000F26F22F040420A43F26719B9316841F033
:101680008071316040040CD5E06AF16F21F0405167
:101690000143B0F1005FF16703D1306840F480305E
:1016A00030602846F8BD00BF0C0000582DE9F84313
:1016B000002800F0B780734F05460C46386800F0EC
:1016C0000700884211D2386820F00700204302F05A
:1016D00096F90646386800F00700A04205D0FFF7EB
:1016E000C9FC801B0228F5D96EE02868B9467C4FFA
:1016F000810711D5A868396821F0F001084302F08C
:101700007EF906463868C00305D4FFF7B3FC801B9A
:101710000228F7D958E02868810615D56869D7F8F6
:10172000001121F0F0010843C7F80001FFF7A2FC07
:101730000646D7F80001800305D4FFF79BFC801B09
:101740000228F6D940E02868410616D5A869D7F8DE
:10175000001121F00F0141EA1010C7F80001FFF756
:1017600089FC0646D7F80001C00305D4FFF782FCC8
:10177000801B0228F6D927E02868410711D5E868C0
:10178000396821F4E061084302F039F90646386807
:10179000800305D4FFF76EFC801B0228F7D913E005
:1017A0002868010714D52869396821F4605141EA95
:1017B000C00002F024F906463868400307D4FFF75A
:1017C00059FC801B0228F7D90320BDE8F88328685C
:1017D000C0071CD1D9F8000000F00700A04224D9AE
:1017E000D9F8000020F007002043C9F80000FFF7F7
:1017F00041FC05464846D9F8000000F00700A04229
:1018000013D0FFF737FC02F032F9F3D930E0686803
:101810004FF0B04198B103282CD002282ED109688E
:1018200089030FD40120BDE8F88300F031F8164990
:10183000086016480068BDE8F843FFF72BBE09684A
:101840008907EFD5396821F00301084302F0D7F882
:10185000064641F288386868396801F00C01B1EB3E
:10186000800FB7D0FFF706FC811B03204145F2D95A
:10187000BDE8F88309688901D4D5E3E7096849051B
:10188000D0D5DFE700400058100000200400002001
:1018900080B500F029F812493C22096802EA91015A
:1018A000024A5158B0FBF1F080BD00BFF47500084A
:1018B00080B5FFF7EDFF0A490A4A0968C1F3022122
:1018C00052F82110C84080BD80B5FFF7E1FF044900
:1018D000044A0968C1F3C22152F82110C84080BDF2
:1018E000080000583476000810B5364951F8042C29
:1018F000086812F00C0205D00C2A15D100F0030084
:10190000012811D14FF0B0400368006800F00800D2
:101910001B0705D4B8B9D1F88800C0F303201CE038
:10192000B0B9D1F8880011E02748042A1ED0082A4F
:101930001BD14FF0B0421268D2025CBF44F60000E7
:10194000C0F2E81012E04FF0B0400068002004E060
:101950004FF0B0400068C0F303101C4B002A53F84E
:101960002030184618BF002001E00020002351F865
:10197000042C02F00C020C2A22D1086800F00302A9
:101980001148022A0CD0032A09D14FF0B042126844
:10199000D2025CBF44F60000C0F2E81000E0184636
:1019A0000A680B6809680124C2F3062204EB51712E
:1019B0005043C3F302120132B0FBF2F0B0FBF1F07E
:1019C00010BD00BF0C0000580024F4000877000888
:1019D0002DE9F047002800F04A81DD4C824660681E
:1019E00000F00C08A06800F003099AF800008006D7
:1019F00027D49AF80000C00766D0B8F1080F5ED06F
:101A0000B8F10C0F08BFB9F1030F58D04FF0B04137
:101A1000DAE901020B6823F480131A43B0F5803F22
:101A20000A6009D0B0F5041F40F094814FF0B04037
:101A3000026842F400120260086840F480300860D6
:101A400094E1B8F1000F1DD0B8F10C0F08BFB9F147
:101A5000010F17D04FF0B0463068DAF82010002997
:101A600000F0088140F0010001F038FE05463068C2
:101A7000800700F12B81FFF7FDFA01F0F8FFF6D99E
:101A8000BDE8F087DAF82000002800F0F0804FF081
:101A9000B041DAF828000A6812075ABFD4F890104B
:101AA0000909096801F0F001884240F2CA8002F099
:101AB00093F9002840F0DB8001F075FDFAE0DAF8D8
:101AC0000400002800F0D3809AF8000080072BD58E
:101AD000B8F1040F1BD0B8F10C0F08BFB9F1020F19
:101AE00015D04FF0B0463068DAF81010002900F039
:101AF0004D8140F4807001F0F1FD054630684005ED
:101B00000AD4FFF7B7FA01F0B2FFF7D9B8E7DAF86D
:101B10001000002800F0AB80DAF81400216821F0F2
:101B2000FE4141EA006020609AF8000000072CD4D2
:101B30009AF8000040074FD4DAF82C60002E00F02D
:101B40007781B8F10C0F40F0C480012E00F08F8037
:101B5000DAF83010A06800F003028A4240F0878073
:101B6000DAF8341000F070028A4240F08080DAF82F
:101B7000381000F4FE42B2EB012F78D1DAF84410AD
:101B800000F06040884272D152E1D4F89010DAF847
:101B9000180000287DD0DAF81C0001F010029042F5
:101BA00000F0898101F00302022A60D0C90700F029
:101BB0007B81D4F8900020F0010001F0A2FF0546DF
:101BC000D4F89000800740F16D81FFF753FA411B74
:101BD00003201129F4D953E7D4F8FC03C0050ED42F
:101BE000FFF7AEFCFFF746FA0546D4F8FC03C00544
:101BF00005D4FFF73FFA01F03AFFF6D940E7DAF8EB
:101C00000C00002800F0D180852801D0052805D1DE
:101C1000D4F88C0040F00400C4F88C00FFF72AFAD6
:101C200001F01FFE40F00100C4F88C00D4F88C00D5
:101C3000800772D4FFF71EFA411B0320B142F5D989
:101C40001EE74FF0B0410A6842F008020A600A68D5
:101C500022F0F00202430A60DAF82410226822F42B
:101C60007F4242EA0121216002F0B6F810B3012060
:101C7000BDE8F08720F0010001F030FD0546306836
:101C800080077FF5B6AEFFF7F5F901F0F0FEF6D963
:101C9000F6E621F0010001F034FF0546D4F890008B
:101CA00080077FF545AFFFF7E5F9411B03201129B8
:101CB000F4D9E5E6FFF7ECFD88490860884800683C
:101CC000FFF7E8FB00287FF4DBAE92E601F06BFC47
:101CD0008FE64FF0B048D8F8000020F08070C8F8C8
:101CE0000000FFF7C7F90546022E0AD1D8F8000018
:101CF000800174D5FFF7BEF9411B03200A29F5D9ED
:101D0000BEE6D8F80000800140F18E80FFF7B2F9FE
:101D1000411B03200A29F4D9B2E6DAF80C0040F09E
:101D20000400852840F08780FFF7A4F901F099FDB1
:101D300040F08000C4F88C00D4F88C0000053FF51A
:101D4000FBAEFFF797F9411B0320B142F4D997E6A8
:101D5000040000584FF0B0460028316821F480316B
:101D60003160316821F40011316078D0FFF782F9D9
:101D700005464FF0B046306880033FF5A5AEFFF74B
:101D800079F9411B03206429F5D979E620F48070A4
:101D900001F0A4FC0546306840057FF5C5AEFFF7AD
:101DA00069F901F064FEF6D96AE6FFF763F90646C1
:101DB000D4F88C0041F2883920F08000C4F88C00FF
:101DC000D4F88C0027460405FFF754F90546002C8B
:101DD00053D5A91B03203C464945F1D950E6A068DC
:101DE00041490AF130070840EECF0843104340EA6A
:101DF000032028434FF0B04530433843A0602868A3
:101E000040F080702860A06840F08050A060FFF72C
:101E100031F90446286880010AD4FFF72BF9011B29
:101E200003200A29F6D92BE6A0682E490840A060B5
:101E30000020BDE8F087FFF71DF901F012FD20F04A
:101E40008000C4F88C00D4F88C0000057FF574AED7
:101E5000FFF710F9411B0320B142F4D910E6FFF758
:101E600009F90546306880037FF52EAEFFF702F9C9
:101E7000411B03206429F5D902E6D7F88C003C46C3
:101E800041F2883620F00100C7F88C00D4F88C00AD
:101E900080077FF551AEFFF7EDF8411B0320B142FB
:101EA000F4D9EDE5DAF81C00D4F8901021F0100117
:101EB0000843C4F89000D4F8900040F0010001F00D
:101EC00020FE0546D4F8900080073FF531AEFFF7BD
:101ED000D1F8411B03201129F4D9D1E510000020CD
:101EE00004000020FCFFFEEE8C80C1117047000052
:101EF000034850F821007047014840F821207047FE
:101F000000B1004090F82C200221012A0DD080F869
:101F10002D10C149734601F050FC9E4642F020024C
:101F20000A60734601F07CFB9E460846704700BF7E
:101F300080B504F07DF80130BDE8804004F084B83D
:101F400010B5044621480168490604D54021816046
:101F50002046FFF7EDFF012084F82D0010BD00BFE3
:101F600090F82C200221012A12D080F82D10AA49C5
:101F7000734601F022FC9E4642F080020A60A84AA5
:101F8000136843F480231360734601F049FB9E46B7
:101F90000846704705F040B870B50C4D04462868F7
:101FA000216B01EA0006F00704D00120A86020465A
:101FB000FFF7F0FFB00704D50220A8602046FFF726
:101FC00095FF012084F82D0070BD00BF542800400B
:101FD000B0B590F82C300222012B2ED08E4BCA24A3
:101FE00080F82D20DC605324DC606FF40854B1F5D8
:101FF000807F08BF6FF488541D682C401C60342417
:10200000B1F5807F08BF2C24E55825F00045E55048
:1020100008BF01225A64FF22DA6000226FF0020337
:1020200080F82C20B1F5807F08BF6FF00103016BB1
:1020300019400163012180F82D101046B0BD00BF8A
:1020400070B5A8B3044690F82D0028B9002084F894
:102050002C00204600F042F802207E4D84F82D002E
:102060002868C00632D4CA20A8615320A86120463F
:1020700001F030FFC8B9E8681749261D0840E8603C
:102080004ECEA06931430843E9680843E86043EA5B
:1020900002406860D4E909012A6822F4F85210432A
:1020A0000843286001F05DFB20B1FF21A96170BDEC
:1020B000012070BD6069D4E90712EB6823F060432A
:1020C0001A4311430843E860FF20A861012084F807
:1020D0002D00002070BD00BFBFFF8FFB10B590B07A
:1020E000044601A830210430FEF78CF82068174917
:1020F000884229D14FF480700E904FF480300190C7
:1021000001A8FFF725FA08B1FEF782FC104800226B
:10211000816B41F400418163016841F48061016099
:102120000021006800F480600F900F980220FFF7F4
:10213000D5F90220FFF7C4F92A2000210022FFF779
:10214000CDF92A20FFF7BCF910B010BD00280040DF
:10215000580000582DE9F04701F0C3FA59D084F82F
:102160002D0001202C4F01F0D0FC01D1002026E0F1
:1021700072B16869B0F1803F07D0B0F5000F04D0AC
:10218000396849065CBF0021E97001F036FA16E0B3
:102190003868DFF888A040065CBF0020E870287827
:1021A000D5F81490D04780466878D04701F0D5FC28
:1021B00001F0D7FB296A41EA080141EA006001F019
:1021C0005AFC0ED101F019FD19BFB862A869D5E912
:1021D00006010843F86268680121B8654FF4885029
:1021E0000DE001F0E5FC19BF3863A869D5E90601E7
:1021F0000843786368680221F8654FF408503A682C
:10220000104338600648026842F40032026001F070
:1022100033FBBDE8F08700BF18280040B13E00083E
:1022200080080058B0B50B4D286820F020002860C9
:10223000FEF720FF04462868800644BF0020B0BD9A
:10224000FEF718FF001BB0F57A7F84BF0320B0BDF6
:10225000F1E700BF0C280040014801F008BB00BFB7
:1022600010E000E0012904D041B9D74881688020FE
:102270000847D54881684FF480700847704700BF11
:10228000D1488168402008472DE9F04101F06BFCFE
:1022900002D16079012802D10220BDE8F08101F06D
:1022A00027FADE490868884601F063FB394602F0E8
:1022B000D9FF20460021002702F0D4FFAF4204D20C
:1022C00001F02CFC01370136F8E701F09BFB01F02F
:1022D000B0F918BF0120BDE8F08100BF2DE9F04141
:1022E00001F041FC02D16079012802D10220BDE851
:1022F000F081012520461E4617468846657102F08A
:10230000DFFF48F010004146942818BF00252571D2
:10231000DD4D286820F40040286001F051FC2EB10A
:1023200017F8011B01F04CFC013EF8E72868B8F1F2
:10233000840F40F40040286002D0204602F0E4FF01
:1023400001F077F918BF0120BDE8F0819E4881684F
:10235000202008479C48816810200847F8B50446AB
:1023600000200DF1020512210223ADF802002046E3
:102370002A46FFF789FF9DF802609DF8037020460A
:1023800002212A460223FFF7A9FFF80702D02046C0
:1023900000F016F9B80702D5204600F003F97807D7
:1023A00002D5204600F09EF8380702D5204600F0FE
:1023B00003F9F80602D52046FFF7CCFFB80602D590
:1023C0002046FFF7C3FF780602D52046FFF758FFE7
:1023D000380604D506F001012046FFF743FFB00799
:1023E00002D5204600F0E2F8700602D5204600F043
:1023F0005BF8F8BD88B1BCB504468079264D70B154
:10240000032806D101F001FC2448016841F4805101
:1024100001604FF40060286131E00120704701F055
:10242000F4FB1E486422016841F4805101600220DF
:102430001B49A071685820F4004068501948006892
:10244000C0EBC000C0F34C4050430190019830B144
:10245000019A013A01926A585204F7D401E001212D
:10246000A160D5F8881041F40041C5F888102968AA
:1024700041F4006129604FF40061296148B120688E
:1024800002F0B0FE00200121A06021710121A171A4
:10249000BCBD0120FAE700BF0804005890080058AE
:1024A0008CFCFFFF10000020474881684FF48040FB
:1024B000084700BFE0B50A480022016841F0010169
:1024C00001600021006800F00100019001983220B5
:1024D000FFF704F83220BDE88C40FEF7F1BF00BFE3
:1024E0006400005838488168042008472DE9F84303
:1024F00001F039FB02D16079012802D10220BDE848
:10250000F88301F0F5F86049DFF8808108688946B2
:1025100001F02FFA1E21C04720463946C047204609
:1025200000210027C047AF4204D201F0F7FA01377B
:102530000136F8E701F0ACF901F07BF818BF012093
:10254000BDE8F8832DE9F84301F00DFB02D1607975
:10255000012802D10220BDE8F88301F0C9F84A49F8
:10256000DFF828810868894601F003FA1D21C04779
:10257000390A2046C047F9B22046C047204600210C
:102580000027C047AF4204D201F0C8FA0137013634
:10259000F8E701F07DF901F04CF818BF0120BDE823
:1025A000F88300BF08488168022008470648816810
:1025B0004FF40070084700BF0348816808200847AF
:1025C0000148816801200847980000202DE9F0416A
:1025D00001F0C9FA02D16079012802D10220BDE8D8
:1025E000F08101F085F828490868884601F0C1F9B2
:1025F0000E2102F037FE2046394602F033FE2DB19F
:1026000016F8011B01F0DCFA013DF8E701F0FAF9D8
:1026100001F00FF818BF0120BDE8F08190040058C8
:102620002DE9F84301F09FFA1CBF0220BDE8F883B2
:102630000F4661790220012923D0A07101201D4697
:1026400016466071204602F03BFE0F49DFF83C80E1
:102650000868894601F08DF90D21C047390A2046E6
:10266000C047F9B22046C0472DB116F8011B01F052
:10267000A7FA013DF8E701F00BF900F0DAFF18BF07
:102680000120BDE8F88300BF90040058655200089F
:10269000014800F0ADBF00BF10E000E010B501F050
:1026A00071F904BF022010BD2420C4F888002068FE
:1026B0000168026822F0010241F00051026001222B
:1026C00084F884204FF0005262660160204603F0D7
:1026D0009FFE0020202184F88400C4F8881010BDDB
:1026E00090F88410012901D102210FE0012180F826
:1026F0008410016851E8001F026841F0020142E8BD
:102700000013002BF5D1002180F884100846704793
:1027100070477047B0B501F035F904BF0220B0BD75
:1027200000F098FF22F0606201F079F900F0F3BF49
:10273000B0B501F027F904BF0220B0BD00F08AFF58
:1027400022F0604201F06BF900F0E5BFBCB501F08A
:1027500019F904BF0220BCBD2420C4F888002068F9
:10276000036823F001030360012384F88430836845
:1027700023F440130B43836059B9436891B223F0AB
:10278000100319434160C2F30741426861F31F62BD
:102790004260016841F001010160FEF76BFC0346F5
:1027A0006FF07E404FF4800100220025009020460B
:1027B00004F0BEFA08B1032003E02020C4F888002A
:1027C000002084F88450BCBD7047704770470000FB
:1027D00070B50446006840F60F05C2690168836859
:1027E0002A426BD0A94D01EA0506A94D1D40761974
:1027F0006ED0D60709D0CE0507D501260662D4F8DB
:10280000906046F00106C4F89060960709D5DE078F
:1028100007D002260662D4F8906046F00406C4F899
:102820009060560709D5DE0707D004260662D4F863
:10283000906046F00206C4F8906016070BD501F0D0
:102840002006354307D008250562D4F8905045F09E
:102850000805C4F8905015050AD54D0108D54FF468
:1028600000650562D4F8905045F02005C4F89050FA
:10287000D4F89050002D6ED092060AD501F02001B8
:1028800003F08052891804D0616F11B12046884747
:102890002068D4F89010806801F0280100F0400012
:1028A000401852D0204603F0A3FE206881684906F4
:1028B0005FD500F0F6FF4FD02068FAE7950607D500
:1028C00001F0200503F08056AD1901D0616F13E0CF
:1028D000E56E012D03D1D50601D5CD064ED4D50226
:1028E00001D55D0229D415060BD501F0800503F44E
:1028F00000035B1905D0A16F69B32046BDE87040A5
:102900000847530601D54B060DD4100201D54800E7
:1029100059D4D0011FD5B1F1FF3F1CDC2046BDE8E2
:102920007040FFF7F6BE50E8000F216820F040002D
:1029300001F024F83DD02068F5E74FF480110162E2
:102940002046BDE87040FFF740BF2046FFF73EFF3E
:102950000020C4F8900070BD00F05EFF09D04D4922
:102960008163FEF7ABF80028F5D0D4F88000816BC6
:10297000C4E72046BDE87040FFF728BF1021016280
:102980008168490624D4B4F85E10B4F85C20B4F829
:102990005E30002BDFD0511A0A04DCD050E8000F63
:1029A000226820F4907042E80003002B4CD020688D
:1029B000F4E70020A0672020C4F888002046BDE886
:1029C000704000F08BB92046BDE87040FFF7FCBEB8
:1029D000D4F880100A6853689DB2002DBBD0B4F8BB
:1029E0005C108D42B7D2A4F85E301268920624D4EF
:1029F00050E8000F216820F4807000F0BFFF01D084
:102A00002068F5E7206850E8020F216820F00100F7
:102A100001F001F8F6D1206800F043FFFBD120203F
:102A2000C4F88C000020E06600F00AFEFCD1D4F867
:102A30008000FEF70BF8B4F85C1002202067B4F8B1
:102A40005E00081A81B21CE01348226852E8022F87
:102A50002368024043E80225002DF6D12020C4F867
:102A60008C0000206067E066206850E8000F226854
:102A700020F0100042E80003002BF5D1022089B2BB
:102A800020672046BDE87040FFF742BE20010004E9
:102A9000010000104B650008FEFFFFEF10B548B1C4
:102AA0000446D0F8880008B901F0B4F800F028FE18
:102AB000012801D1012010BDA06A08B100F090FFEB
:102AC00000F087FF21F02A01816000F061FEBDE87F
:102AD000104003F013BD000010B50446006884499F
:102AE000884218BF10BD0948016821F40031016017
:102AF0004FF090400C21FEF775F9E06FFEF724F8D7
:102B00002520BDE81040FEF7C9BC00BF58000058A2
:102B100070B594B004460EA81421FDF773FB684607
:102B200034210430FDF76EFB2068714988424FD193
:102B300028480225009502906846FEF709FD08B175
:102B4000FDF766FF24480026C16841F40031C160EA
:102B5000C16801F4003113911399016841F001013A
:102B60000160006800F0010013900720CDE90F56C6
:102B70001290032011900C200E9013980EA94FF084
:102B80009040FEF7A5F91548154D80211022142319
:102B9000C0E90053C0E90226C0E90416C0E9066690
:102BA0000662FEF777F808B1FDF732FF0B4D1021F2
:102BB0002846FDF7B9FF08B1FDF72AFF25200221BD
:102BC0000022AC62E567FEF789FC2520FEF778FC61
:102BD00014B070BD04000C004C00005864060020C6
:102BE00058000240B0B5D0F88C30202B1CBF02201A
:102BF000B0BD91B18AB10023094CC3660368A342FA
:102C000002D05C68240203D404F00CF80020B0BDAC
:102C100000F006FEF8D00368FAE70120B0BD00BF5F
:102C20000080004010B5044600683149884218BF52
:102C300010BD0848436833B1D4F8900018B905486E
:102C4000012100229847034920460122BDE8104097
:102C5000FFF7C8BF20000020F8B50446D0F8880070
:102C600020281CBF0220F8BD01B31346F2B1002298
:102C70002120A4F85630C4F89020A4F854302165DF
:102C8000C4F88800E06F98B1114D124E124FC0E9A0
:102C90000D522268C0E90B762832FEF75BF838B196
:102CA0001020C4F890002020C4F888000120F8BD4E
:102CB00020684021016250E8020F216840F0800046
:102CC00000F0A9FE01D02068F5E70020F8BD00BFA4
:102CD0005B650008E9650008B16500080068044903
:102CE000884218BF7047034801680020084700BFAA
:102CF0000044004060060020704700002DE9FC41C0
:102D0000674900F050FE0DF105002160BE2100F082
:102D1000C7F980B900F035FD01D000250BE00DF1B9
:102D2000050000F009FF30B900F00AFD0DF10500C3
:102D300000F0C6F910B12846BDE8FC810DF105068A
:102D400001253046BE21272200F0BAFD0028F2D12D
:102D50009DF805008007F4D00DF10600BE21A822E1
:102D600000F00CFD08B10125E5E7B74EBDF90600FE
:102D7000B6F90070B6F90280C01BFDF71AFC0546D3
:102D8000D6E902063146FDF7A1FA2946FDF7A4FA75
:102D90000546A8EB0700FDF70CFC00F0FAFE00F07A
:102DA00023FFFDF744FC3F4E00F002FDFDF720FC41
:102DB00000B2FDF70CFC00F086FEFDF74BFC002195
:102DC0000746FDF7E8FB064E002818BF00273846E7
:102DD00027603146FDF7D1FB0028ACD126609CE787
:102DE0000000C8422DE9FC412D4900F0DCFD0DF149
:102DF00005002160BE2100F053F980B900F0C1FC4C
:102E000001D000250BE00DF1050000F095FE30B972
:102E100000F096FC0DF1050000F052F910B12846C3
:102E2000BDE8FC810DF1050601253046BE212722B3
:102E300000F046FD0028F2D19DF805008007F4D08F
:102E40000DF10600BE21AA2200F098FC08B1012570
:102E5000E5E7DFF8F481BDF90600B8F90470B8F9C8
:102E60000660C01BFDF7A5FB0546F01BFDF7A1FBA7
:102E700000F08FFE00F0D9FE2946FDF72DFA00F094
:102E8000B3FEFDF7D4FB074E00F092FCFDF7B0FB5C
:102E9000FDF79DFB00F017FEFDF7DCFB2060BEE7B1
:102EA00000F8FF4500005940BCB500248DF80340F0
:102EB00000F0CCF800286FD1ADF8044001A8BE2185
:102EC000322200F0FDFC002866D19DF8044001A8E4
:102ED000BE21352200F0F4FC00285DD19DF80400ED
:102EE00000F0030044EA0020FDF763FB4FF0785147
:102EF000FDF7F2F9544CBE2133220123606101A891
:102F000000F0CEF8002847D19DF8045001A8BE215A
:102F1000352200F0D5FC00283ED19DF8040000F0D9
:102F20000C0045EA8010FDF744FB4FF07851FDF7A7
:102F3000D3F9206101A8BE21BC2200F01FFC58BBC0
:102F4000BDF80400BE21BE220223A08001A800F02B
:102F5000A7F808BBBDF80400BE2130220123E080A1
:102F60000DF1070000F09CF8B0B90DF10600BE218C
:102F7000312200F0A5FC78B901A8BE21B62200F0EC
:102F8000FDFB48B9BDF80400BE21BA22022320800F
:102F900001A800F085F810B101242046BCBDBDF8A1
:102FA000040060809DF80700FDF70CFB4FF07C519A
:102FB000FDF792F9E0609DF80600FDF703FB4FF086
:102FC0007C51FDF789F9A0600DF10300BE2120229C
:102FD00000F06DFB0028E0D19DF80300BE21202207
:102FE0000123012400F0F80004308DF803000DF1F6
:102FF000030000F065F80028CFD10DF10300BE21D9
:10300000222200F054FB0028C7D19DF80300BE2106
:1030100022220123012440F0C3008DF803000DF1AA
:10302000030000F04DF80028B7D11220BE21102275
:1030300001238DF803000DF1030000F041F8044670
:10304000002818BF0124A8E7AC0000201CB50DF132
:103050000700BE21202200F02AFB80B99DF807005E
:10306000BE212022012340F080008DF807000DF1E1
:10307000070000F025F80446002818BF0124204668
:103080001CBDFEE700688169890744BF0021816299
:103090008169C90703D1816941F0010181617047EC
:1030A000FEB500F058FB00F006FBF248FEF776F89C
:1030B0000446002818BF0124FFF7EAFA2046FEBDA7
:1030C000FEB500F048FB00F0F6FAEA48FEF7F4F827
:1030D0000446002818BF0124FFF7DAFA2046FEBD97
:1030E0002DE9F041044600680D468169C90602D405
:1030F0000025002139E0102116464FF000086F1C12
:10310000C1610021826902F020020A4327D12FB158
:10311000FDF7B0FF801BA84203D815B1002120683D
:10312000F0E72068436894F8421082695B0409D490
:1031300012F4004206D0202904D000F059FDFDF71A
:1031400099FF0646206880698006E7D4FDF792FF64
:10315000801B1A28F6D348F020080121DFE709B9BF
:103160002021C16148F0040501218269D30505D5FC
:103170004FF4807145F00105C1610121530505D46B
:1031800092050AD471B90020BDE8F0814FF4806146
:1031900045F00805C161910504D54FF4007145F073
:1031A0000205C1612046FFF76DFF2068054A4168AE
:1031B00011404160606C284300F0F0FA0120BDE846
:1031C000F08100BF00E800FE70B500686FF39F213A
:1031D000049D074E1943446841EA0241294324EA09
:1031E000555421F0004134402143416070BD00BF7F
:1031F000009C00FC2DE9F843DDF820801D461646B2
:103200000F4681465C1CD9F8000080693840C01B1D
:10321000B0FA80F04009B0421AD1002CF3D0FDF78B
:1032200029FFA0EB0800A84201D8002DEBD1D9F866
:10323000440040F02000C9F84400202089F84100F3
:10324000002089F8400089F842000120BDE8F88399
:103250000020BDE8F88370B515460E460446206888
:103260008069800644BF002070BD00F0FBFB58B9A8
:10327000FDF700FF401BB04201D8002EEFD1606C7B
:1032800040F0200000F08AFA012070BDF8B5154624
:103290000E4604464F1C20688069800744BF00200A
:1032A000F8BD00F0DFFB68B9002FF4D0FDF7E2FEB7
:1032B000401BB04201D8002EEDD1606C40F02000E0
:1032C00000F06CFA0120F8BD81B005490A6802439C
:1032D0000A60096808400090009801B0704700BF7C
:1032E0004800005881B019490A6802430A60096819
:1032F00008400090009801B0704700BF81B01348AB
:10330000016841F002010160006800F002000090D5
:10331000009801B0704700BF81B00C490A680243B1
:103320000A60096808400090009801B0704700BF2B
:1033300081B00648016841F004010160006800F0B6
:1033400004000090009801B0704700BF4C00005886
:10335000064A6FF47F2161EA101100F47F40136880
:10336000194041EA00101060704700BF8800005803
:1033700080B50420FFF7A8FF0120FFF7A5FF0F206D
:1033800002210022FEF7AAF80F20BDE88040FEF7D8
:1033900097B800002DE9F04786B0204C4FF00008A8
:1033A00002200225CDF81480A0470420A047012068
:1033B0004FF0010AA0471A4C4FF43A410022204630
:1033C000FDF752FE4FF40A400495CDE902A8154ED0
:1033D000019001AD20462946B0474FF40419032758
:1033E0004FF090402946CDF80CA0CDF808900197F9
:1033F000B0474FF4405029460497CDE902A8019008
:103400002046B04740202946CDE9029A019004F5B4
:103410008060B04706B0BDE8F08700BFE532000825
:1034200000040048D10E000810B5124C01200621FE
:10343000114A124BC4E9021004F110001421C4E92E
:103440000032FCF7DFFE2046FDF75AFE08B1FDF71B
:10345000DFFA08480021FDF717FE08B1FDF7D8FA9A
:1034600004480021FDF72EFE18B1BDE81040FDF71D
:10347000CFBA10BDC40600205D3E3020005C004085
:1034800080B58CB001A82821FCF7BCFE17480022AB
:103490004FF480714FF08043C0E908211F21C0E93B
:1034A0000422C0E90623816011490160FEF7C8FDCE
:1034B00008B1FDF7ADFA0D48FEF752FD08B1FDF772
:1034C000A7FA4FF4807000220B904FF00050079045
:1034D0000020069002900890044801A9FEF73AFEE9
:1034E00008B1FDF795FA0CB080BD00BF18070020A9
:1034F0000028004080B5054808210160FEF77AFFEA
:1035000018B1BDE88040FDF783BA80BD50070020A8
:1035100080B502F019FDBDE8804002F0E9BB000073
:1035200010B5174C00210C20164B4FF4E132C4E9C2
:103530000410C4E9021104F118001421C4E9003296
:10354000FCF760FE2046FFF7A9FA08B1FDF760FA24
:103550000B480021FFF7ECF808B1FDF759FA0848CD
:103560000021FFF7D7F808B1FDF752FA0448FFF73A
:1035700095F818B1BDE81040FDF74ABA10BD00BF7C
:103580005C07002000440040FEE7FEE78202810D58
:10359000002310464FF47A72FCF7EABD01200021A7
:1035A000012203F031BC4FF0B040016841F0080146
:1035B0000160DAE90912036823F0F0031A4302609C
:1035C000206820F47F4040EA0120206070474FF6D9
:1035D000FF72F36F62EA01021A4042EA0141F167A9
:1035E0007047012084F8240094F8250001287047D2
:1035F000016821F002010160704729786A78AB7890
:1036000095F803C040EA0140296A40EA02201843C5
:1036100040EA8C50084395F8241040EA0160704756
:10362000FF22CA600021012280F82C1080F82D2092
:103630007047002001216071A068A17100287047C7
:10364000206850E8000F216820F0100041E80002D7
:10365000002A70472420C4F88800206805680268A2
:1036600022F001020260012284F8842082687047FF
:103670001160116841F0010111600021202280F8E1
:10368000401080F84120704702200021012203F001
:10369000BBBB8DF807004A70010A000C03228DF8AD
:1036A00006108DF8050070474FF0FF30704701237A
:1036B0000124FFF7F5BC4FF47A7031462A46012306
:1036C000CDE900740290704720464FF48071FEF7F8
:1036D0007FBC01200021012203F096BB3060FDF782
:1036E000C9BC0D4690F82C100446022001297047F1
:1036F00001201D4616460F466071204601F0E0BDD0
:103700002420C4F888002068016821F001010160CC
:10371000204603F091B9206820210560002084F83C
:103720008400C4F88810B0BD044690F841002028F9
:1037300070470022002302F001B8012302F08EB886
:103740009DF80500BE2121220123012540F0010042
:103750008DF8050070471C4615460E460746FEF7D5
:103760007BBD204600F0DEBB016851E8021F026805
:1037700021F4000142E80213002B70470223FFF7F7
:103780008FBC9DF8050010F003008DF80500704710
:10379000016841F00101016020467047606420200B
:1037A00084F84100002084F8400084F8420070470B
:1037B000002200253346FCF7FFBDCA22CA6053220F
:1037C000CA600A68704704460068D0F81CA0016807
:1037D0008268B4F86050D4F88C30222B7047CDF852
:1037E0000090FFF707BD51E8001F026821F49071B7
:1037F00042E80013002B70472068616A406A087035
:10380000608D01386085606A01306062208D411EE4
:1038100021850904608D7047D4F880000028704726
:1038200053E8003F046843F0806344E80035002D0E
:103830007047C4F88C00C4F874B0C4F870B0206845
:1038400088427047616A206811F8012B8262608D9E
:10385000013860856162208D411E21850904608DDB
:1038600070470546D4F88C0041F2883670470168ED
:1038700041F0020101607047FF20F8600020226BD8
:1038800084F82C0011432163012184F82D10704726
:10389000D9F8000040F40040C9F80000204601F0CB
:1038A00033BD50E8020F216820F0400041E80202D9
:1038B000002A7047002002F0E7B8012202F0ECB9BC
:1038C0000123FFF7EDBB04210162D4F8900040F022
:1038D0000200C4F89000704702220262D4F89020DF
:1038E00042F00402C4F89020704701220262D4F82A
:1038F000902042F00102C4F890207047B0F85C10AC
:10390000FEF706BF00222B460090204603F010BAB7
:10391000608DB0F5807F7047886940F0080088614D
:1039200070470025C16142681A40426084F8411026
:1039300084F8405084F842507047096801F00F0144
:1039400052F82110B0FBF1F07047F26F22EA1142F9
:1039500089B21143F1677047016841F001010160CC
:10396000704748EA0001EA7895F8240041EA825855
:10397000504720F4004008602046704741E80002AC
:10398000002A7047044690F88400012870470160BF
:1039900000200021A06594F8560002F092B813466A
:1039A0000A460146704704460020202201230125D3
:1039B000ADF806008DF8050070472020C4F8880097
:1039C000C4F88C0000207047016851E8001F0268AD
:1039D00070472068416821F49041416081687047D8
:1039E000204602F037BD2046B4F85C10FEF790BECA
:1039F00002F0010901F480784FF0000B7047386045
:103A0000FDF738BBD8F8000040F40040C8F80000CB
:103A1000204601F079BC41E80202002A70471143B8
:103A20008160204602F0F4BC4DF808ED01F0F1FA97
:103A300001205DF808EB00F01BBE01251E4617466D
:103A40008A4684F84050FDF715BB2068390A4A467B
:103A5000816220464146FFF719BC204641464A464E
:103A6000FFF714BC204631462A46FFF739BB411BFD
:103A7000032002297047CA21F9605321F96039688F
:103A8000AA6AB2F5807F7047C2EBC202C2F34C4211
:103A90005A437047016851E8001F026841F0400135
:103AA00042E80013002B70478146009020464FF4F7
:103AB000004101221923FFF79DBB4FF40051016023
:103AC000201D03F03DBB00223346FCF7E7BC608DB0
:103AD00051464FF000732085C2B2204600957047D2
:103AE0006564C4F824B06563A4F82A80884651460A
:103AF00070472685009520465146FF224FF080737F
:103B00007047C4F89000FDF7B5BA84F82C0057F858
:103B10000C0C00F44076B6F5807F704720463146A5
:103B200001F072BB00902046FFF74EBB214600F12A
:103B30001C05284603F0B6BABE2121220123012527
:103B4000FFF7AEBAFF224FF080732085002000906F
:103B5000204670474A46FFF77EBB49EA084141EAE2
:103B60000028A878504704468079012870470168EA
:103B700051E8001F026821F0100142E80013002BF9
:103B8000704794F840000128704740F2FF1002F09F
:103B900059B801462846FCF7D1BB4FF40070606469
:103BA00070472068F9B20022434681622046704780
:103BB00021F40851396002217964B6F5807F70479D
:103BC000204601F04FBB016851E8021F026821F056
:103BD000010142E80213002B70478DF8060049F2FC
:103BE000C140ADF80400704701463046FCF71CBBED
:103BF000416841F480414160704721F48851396047
:103C000001217964B6F5807F7047002060712046FD
:103C1000FEF750BC002084F884002046FEF778BFF1
:103C200040F61F100E2102F045B80546D8E90406FB
:103C30003146FCF74BBB002084F84000204670471B
:103C40002DE9FC411C4616460D46804621A3FFF790
:103C500040FD23A3012000210122CDE9006403F0EF
:103C6000D3F8284FFF217C70274C2046FCF7CAFA76
:103C7000FF2D7D8004D8244841462A46FCF7A9FA46
:103C800022A30320002101223E700095002703F0AB
:103C9000BBF8254E22A5402F13D0E05D0021002265
:103CA0002B460090032003F0AFF807F00F000F2819
:103CB00005D1032000210022334603F0A5F8013787
:103CC000E9E7194B03200021002202B0BDE8F041D2
:103CD00003F09AB84F6E5278446F6E650A0D00007B
:103CE0005273736956616C75653D25642064426D3D
:103CF0002C20536E7256616C75653D256464420AD2
:103D00000D00000028000020F80200207061796C8E
:103D10006F61642E2073697A653D2564200A0D0069
:103D200025303258000000007D78000801A3FFF71D
:103D300035BC00BF4F6E52784572726F720A0D002B
:103D400001A3FFF72BBC00BF4F6E527854696D651D
:103D50006F75740A0D00000080B504A3FFF7B9FC6D
:103D600001200021BDE8804003F00EB94F6E547869
:103D7000446F6E650A0D000001A3FFF70FBC00BF82
:103D80004F6E547854696D656F75740A0D000000AC
:103D900010B5084C4FF400712046FDF75DF9204640
:103DA0004FF40061FDF758F903480830BDE81040B2
:103DB00003F090B900040048280000207047FCF789
:103DC0002BBDFCF74BBDFCF74FBDFCF74FBDFCF71F
:103DD00081BDFCF781BD000070B53C21214A01EA9C
:103DE00090001E4908581E49FFF7A7FD1E49B0FB69
:103DF000F1F4FDF79FFBB0F5007F09D11D490020CC
:103E000003280FD031F8102094420DD90130F7E784
:103E100016490020032805D031F81020944203D918
:103E20000130F7E7002502E0114951F82050124E09
:103E3000306820F007002843FFF750FC0446306844
:103E400000F00700A84204BF002070BDFDF712F982
:103E5000001B032824BF032070BDF0E7087700088B
:103E600008010058F475000840420F00E075000892
:103E7000E8750008DA750008004000587047704780
:103E8000FFF712BC0020704700207047FFF70CBC02
:103E9000FFF70ABC704770477047FFF705BCFFF794
:103EA00003BC00000148FEF777B800BF18070020E8
:103EB0000928014698BF0921CAB20A23B2FBF3F2CE
:103EC00002EB8203A1EB4303591A084440EA0210B3
:103ED000C0B270472DE9F041114E8046306840066F
:103EE00019D430680027012440F080003060FDF7CD
:103EF000C1F805463068E14341EA9010C0070BD194
:103F0000FDF7B8F8401BB0F57A7FF3D903270024FA
:103F100088F82D70EEE70027F8B2BDE8F08100BF09
:103F20000C280040B0B5124D044655F80C0C20F09A
:103F3000800045F80C0C2868800606D4FEF772F95C
:103F400070B1032084F82D00B0BD286820F0200057
:103F50002860FEF767F928B1032084F82D0002E0FD
:103F60000020B0BD0020296841F020012960B0BDCB
:103F7000182800400120704780B501F083FA04380A
:103F8000C0B2032884BF002080BD0349C00021FACD
:103F900000F0C0B280BD00BF0201000380B501F097
:103FA000C5FA033080BD0000F8B5F44EEC4F002593
:103FB0003446BD65C7E901557D7001C4184801F05C
:103FC00011FBBD8101F0C7FC0020002101F07FFB47
:103FD00001200021042201F0BFFD4FF6FF704FF6D3
:103FE000FF71FFF7A6FB01F00BF80E4B20464FF0D8
:103FF000FF310022009502F0DBFF009506F11C0561
:10400000094B4FF0FF310022284602F0D1FF204635
:1040100003F096F82846BDE8F84003F091B800BFD9
:104020005543000881430008654300087CB58D4C6A
:1040300000208DF807000090B4F85400411E0729B5
:1040400027D9102800F0B080202800F0AF80402849
:1040500000F0BE80802800F0C780B0F5807F00F0BF
:10406000CC80B0F5007F40F0E68091A3FFF70CFB19
:1040700001F008FA042840F0CA80C7487E4CFFF7D8
:104080001CFDFFF717FC2068002800F0D480406872
:10409000CFE0DFE801F00416D052D0D0D07FBE4888
:1040A000754CFFF70AFDFFF705FCFFF7EDFE012851
:1040B00008BFFFF7E4FE2068002800F0BC8000681D
:1040C000B7E0B5486C4D4FF48051016005F11C001C
:1040D00003F036F8607880B9FFF7ECFB40F6021089
:1040E000002101F0E7FD40F6441001F0CBFA40F06A
:1040F000020140F6441001F0DDFD72480DF10701A8
:10410000FF2201F0FBF904F1240001F0BFF9286857
:10411000002800F090808668002E00F08C8094F8D3
:104120002400012840F0888094F9313094F930203F
:104130009DF807106348B0477CBD59A302200021B9
:104140000122002502F060FEA06D002873D0574EBA
:10415000C0F3074140F60310B04794F8591040F6F9
:104160000410B04794F8581040F60510B04740F6D8
:10417000021001F087FA40F0010140F60210B0474A
:1041800040F2622040F2622100220023A56501F086
:10419000D5FA7CBD3FA3FFF777FAFFF773FE01283E
:1041A00049D1FFF777FE7CBD37A30EE0324D05F114
:1041B0001C0002F0C5FF607808B9FFF77BFB286898
:1041C000C8B3C068B8B380472CA3FFF75DFA7CBDC5
:1041D00025A3FFF759FA607808B9FFF76BFB26486B
:1041E000006840B3006924E0FFF764FB22480068E0
:1041F00008B38169F9B1002007E0FFF75BFB1E48B7
:104200000068C0B18169B1B1012088477CBD01F06F
:1042100039F905280FD16048174C4FF480510160DF
:1042200004F11C0002F08CFFFFF744FB206810B182
:10423000C06800B180477CBDE06B694601F0D2F8F0
:1042400000984FF47A7194F9292000F5FA7090FBE8
:10425000F1F09DF8071043B228688468F148A04740
:104260007CBD00BF000600204952515F4352435FAE
:104270004552524F520D0A0064000020484452201B
:104280004B4F0D0A00000000484452204F4B0D0ACE
:104290000000000053594E43204F4B0D0A00000010
:1042A000505245204F4B0D0A00000000B55C00083D
:1042B0004952515F52585F54585F54494D454F55CC
:1042C000540D0A00F70400202DE9F0418AB01C4685
:1042D00015468846074600F09CFE0020002600F0A8
:1042E000C7F9384601F048FB012041464FF41672E9
:1042F0000023CDE90266CDE90466CDE90666CDE985
:1043000008600320CDE90080002000F0F9F90020CA
:1043100000F056F8FFF742FEFCF75DFD02F062FE8A
:104320000646304602F068FE0746A04203D201F07E
:1043300031F9A842F5DD0025A74228BF012500F08C
:1043400068FE28460AB0BDE8F081012070470120D0
:1043500070470000E949A1F85400FFF767BE00BFAD
:10436000000600200C484FF480510160B5480068F9
:1043700010B1C06800B10047704700BF6400002062
:1043800005484FF400510160AE48006810B1406824
:1043900000B10047704700BF2804004880B50020E6
:1043A0000021FFF7C6F9BDE8804001F0C1B801F077
:1043B00069B901F073B980B501F0ECF880BD000077
:1043C000B0B50446FFF75EFD012802D1FFF75EFDA0
:1043D00005E040F2622040F26221FFF7AAF92CB119
:1043E0009848FFF7A3FB284602F074FE8B484FF471
:1043F0008051C24CFFF7CBFA61786FF07F40A26822
:10440000002908BF9001BDE8B04001F0E5BA00BF47
:10441000B0B50446FFF736FD012802D1FFF736FD9F
:1044200005E040F2622040F26221FFF782F92CB1F0
:104430008448FFF77BFB284602F04CFE77484FF498
:104440008051AE4CFFF7A3FA61786FF07F40A2680D
:10445000002908BF9001BDE8B04001F0C9BA00BF13
:104460002DE9F84F8B46814640F2012040F20121B0
:10447000FFF75FF969484FF40051DFF8A48101604C
:10448000012198F8560001F01CFB98F8000098F8FC
:10449000511081F0060180F0010050EA010640F65B
:1044A000890018BF012601F0EDF800F0FB0040EA9A
:1044B000860140F6890001F0FDFB98F80000042811
:1044C00000F29280DFE800F0031603192000FFF7E6
:1044D000D9FC012825D10DF1030248465946FFF7C2
:1044E000DCFC002800F08D8050A3FFF7CDF80320FE
:1044F000BDE8F88F88F81FB015E00221404600F8AB
:104500000E1F80F80CB010E0464800215A464B467A
:104510008AB11E78013AF64303F8016B00F8011BDB
:10452000F6E788F816B008F10E0001F0A7F9484642
:104530005946002256E03B4E4FEACB0700200721A8
:104540000022974215D0C2F3C70421EA02030132C8
:1045500019F8044024FA03F321EA020403F00103EA
:104560005840C3B2A340C2F3C704355D2B43335553
:10457000E7E7C10145460BF1010941EA8011C0B2EC
:10458000B0FA80F0400941EA401006F80B00022022
:1045900005F80E0F284685F80C9001F06FF9DFF84A
:1045A00088A0F1200021D047F0200021D047D5F885
:1045B0003A40E121642C08BF7021F320D047042148
:1045C000642C08BF1D21F220D0474FEA5B11F42074
:1045D000D047B81CC1B2F520D0475FFA89F1304608
:1045E0006FF07F4201F06AF81648D8F80410041DF5
:1045F000204602F057FD204602F06CFD0020BDE889
:10460000F88F9DF8030088F8160008F10E0001F0FD
:1046100035F99DF8031048468BE700BF18040048A1
:1046200000060020F7040020B55C000852616469B0
:104630006F53656E64204F76657273697A650D0AF3
:10464000000000006400002001F096B9012802D1AA
:10465000DF48C17705E0DE48427D012A18BF704778
:104660008175CA480170DA480E3001F007B900BF01
:10467000B0B5D74D04462870FFF70EFC052C14D8B2
:10468000DFE804F0050B1303030502200EE0002011
:10469000002401F047F96C7306E0012001F042F9B3
:1046A000287B697B814206D1B0BD032001F03AF935
:1046B00000206873B0BD6873002818BF0120BDE8F2
:1046C000B04000F001B800BF10B50446C0484473C4
:1046D00004730120FFF7CCFF14214FF4E860002C95
:1046E00018BF342101F0E6FA242140F24170002C79
:1046F00018BF4421BDE8104001F0DCBA00060020DC
:104700002DE9F04F85B0DDE91185DFF89CBA179CE3
:104710001F4691468A4606468BF80140B8F1000FC5
:1047200008BF4FF0FF35FFF7A9FB9849002C109800
:104730000F9C0D7018BF0020002E6DD0012E00F0D0
:10474000B280052E40F01E8100900120884601F0C5
:10475000AFF9092000275E468BF844004FF44870FB
:1047600006F8387FCBE90F90504600F079FE5D46A1
:1047700005F80E7F85F837004FF480506860E00040
:1047800068800120A5F8090098F80000287205202B
:10479000FFF76EFF304601F009F8284601F06EF889
:1047A00042F2B270CDF80E70ADF81270ADF80C0098
:1047B00003A801F09CF9FFF7E8F9764E40F6B8003F
:1047C000B047754D00F0EF0140F6B800A84740F63D
:1047D000B9000421A84740F69B00B04700F0E30071
:1047E00000F1080140F69B00A84740F2D160B047B5
:1047F00040F0180140F2D160A84740F2AC60B047E9
:1048000000F08F0000F1500140F2AC60A847009921
:104810004FF4FA50484343E004460020002701F0DB
:1048200047F90B205E46CBF83C908BF8440050468D
:1048300006F8387F00F014FE5D46139905F80E7FE8
:1048400085F8370088F00100AF71E87141F6040087
:10485000A8800F98C00068800120A872002918BFA6
:104860006FF00D00687249480078287200F0D1FBA3
:104870000020FFF7FDFE304600F098FF284600F0CC
:10488000FDFFC120CDF807708DF80B70FFF7A5F97B
:1048900001A801F02CF9FFF778F94FF4FA506043C2
:1048A000B0FBF9F06CE0009000205D464FF0000B8B
:1048B00001F0FEF8364901202E4622468AF0010317
:1048C00006F8380F0C2C11F80A10B77686F81890F5
:1048D00006F81A8C71766FF0040198BF0C2251FA19
:1048E00089F10229169928BF224626F81C2C344645
:1048F00089F00C0206F8171C139906F8181C2349B6
:10490000097806F8191CA9F10B01022938BF4FF0EC
:10491000010BBAFA8AF104F82A0D1A434909B2FACE
:1049200082F201EA0B01AB4652091143F176FFF71F
:104930007BF8304600F03AFF204600F09FFF0098D9
:10494000C0B200F016FF40F6A30000F09BFE00F09E
:10495000010140F6A30001F0ADF916F8170C441E52
:1049600040F2367018BF012400F08CFE00F0FB000E
:1049700040EA840140F2367001F09CF94FF6FF7076
:10498000CBF8080005B0BDE8F08F00BF0C00002098
:104990005476000885560008B55C000870B5EB4EEB
:1049A000054601EB40000C464FF6FF710022002344
:1049B000B0654FF6FF7000F0C1FE96F8560000217A
:1049C00001F07FF828462146BDE8704001F02AB882
:1049D000000600202DE9F04387B0002798461546D1
:1049E00089460646CDE90477FFF748FAD74C002DF3
:1049F00018BF0125657018BFB846012E40D0002EA3
:104A000040F0B680D9F80800002800F0AF80D9F84F
:104A10000C00002800F0AA8099F81E20082A00F255
:104A2000A580D9F8101004A802F09EFAD9F8000069
:104A3000002818BF012001F03BF8002584F8385009
:104A4000D9E90101E16399F8201084F8441000F0DD
:104A500007FD84F84500A57399F81F2099F82130C7
:104A600099F81E1099F82200A2742375C900B9F8AC
:104A70000C20E174D200002822825AD0FF215AE093
:104A8000B9F83000002871D099F8320001280CBF25
:104A9000D9F81450FF25D9F82800002818BF0120A4
:104AA00001F006F85FFA88F000F063FE012084F858
:104AB000380099F82C1099F82F0084F8501002282B
:104AC000B9F82D20A4F8512005D306D10B390020C8
:104AD000022938BF012084F85300012004F80E0F8A
:104AE000B9F830006574E08199F832002074B9F8A3
:104AF00034006082FEF798FF04F12A0000F056FEB1
:104B0000204600F0BBFEE07C451E40F2367018BF28
:104B1000012500F0B7FD00F0FB0040EA850140F2FE
:104B2000367001F0C7F84FF6FF70002744F8060C06
:104B30001EE0D9F81410A17599F82410022918BFA5
:104B4000022819D199F82300A0F1F101022901D31B
:104B500001280BD1904A0025CDF808908DF80C5013
:104B600052F81C1B01A8FFF78BF958B14FF0FF3723
:104B7000384607B0BDE8F083607599F823002176C8
:104B8000E07503E001206575A4F8170000F041FA14
:104B900000200027FFF76CFD04F1380000F006FE4E
:104BA00004F10E0000F06AFE04A800F0A0FFB9F8BE
:104BB0001C0001F047F8B9F8180000F09FFD4FF411
:104BC000FA50D9F8081008FB00F0B0FBF1F0A06033
:104BD000CEE700BF2DE9FE4F1D4617468846044626
:104BE000FFF74CF9149EDDF830A0042C49D0DDF815
:104BF0004090DDE90EB3012C51D0002C40F09380A1
:104C0000FD4E0B2086F844002846C6F83CA04FF025
:104C1000000A34461D4604F838AF00F021FC06F8BF
:104C20000EAF86F837000120C6F83270B072B9F1C5
:104C3000000F18BF6FF00D00707286F806A085F0A7
:104C40000100F07141F60400B0804FEACB007080A3
:104C500000F0DFF90020FFF70BFD204600F0A6FD75
:104C60003046149E00F00AFEC120CDF807A08DF852
:104C70000BA0FEF7B2FF01A800F039FFFEF785FF99
:104C800051E00420FFF7F4FCEC48022100F8381F43
:104C900016210175C0F810A000F088FD43E03746EA
:104CA000E64E012013990D9ABBF10C0F06F80E0F7A
:104CB00086F84420264AF1742649337486F842A0C7
:104CC00086F8129085F001033446525D097886F823
:104CD000432071746FF004015A4651FA8AF198BF6B
:104CE0000C22022928BF5A46F281AAF10B010022A8
:104CF0000229B5FA85F138BF012204F82A0F4909C3
:104D000011408AF00C021A43B2FA82F2520911439E
:104D100086F84510FEF788FE204600F047FD304635
:104D20003E4600F0ABFD404600F042FEC34C0E2173
:104D300084F8560040F61F1000F0BCFF94F85600AF
:104D4000FFF7A9F86660BDE8FE8F00BF00060020EF
:104D5000547600080C000020B0B514460D4600F053
:104D60000BFE284600F024FE0546FEF759FF2846B4
:104D7000012100F0A6FE4FF47A70444300F0E2FEF9
:104D80009E482146051D284602F08CF92846BDE8BC
:104D9000B04002F09FB900BF640000202DE9F0434D
:104DA00087B0074600201C4615460E46CDE9040094
:104DB000FFF764F8032F00F21281DFE807F00243E7
:104DC00082963068002800F0DD80B27C082A00F26C
:104DD000D980B16804A802F0C7F8F34F002004227C
:104DE00087F838003168B873F963F17C87F84410AC
:104DF000B1693964B188BA74C9003982B17C387537
:104E0000C800F874B07D022803D0307D022840F03D
:104E1000BC80707DA0F1F101022902D3012840F08D
:104E2000B180764A4FF0010801968DF80C8002CAD5
:104E300001A8FFF725F8002840F0A480A7F8178004
:104E40000020A7E0D84F012087F83800307887F895
:104E50005000707887F85100B07887F85200F078E9
:104E6000022807D308D13078A0F10B0100200229D5
:104E700038BF012087F85300012007F80E0FB088D3
:104E8000F881B0793874F079B874307AF874FEF734
:104E9000CBFD07F12A0000F089FC384600F0EEFC5B
:104EA00097F8436040F6890000F0ECFB062E0CBF3B
:104EB00000F0FB0140F0040140F6890000F0FAFE2A
:104EC0008DE0306800285DD0B0F57A7F5AD8032095
:104ED000FFF7CEFBB4480221162200F8381F3168D4
:104EE0000275016100F062FC79E0B27C082A49D8C1
:104EF000B16804A802F038F83068002842D042F2C5
:104F0000107188420CD8A84803214FF0020880F89D
:104F1000381081733168C163F17C80F844100EE071
:104F2000A1484FF0000880F8388080F80E80316882
:104F3000C163F17C80F84410316889080164B0884D
:104F4000994F0421B974C00000213882B07C3975B2
:104F5000C000F874B07D022802D0307D02281ED136
:104F6000707DA0F1F101022901D301280AD1234A61
:104F70004FF0010901968DF80C9002CA01A8FEF7C6
:104F80007FFF90B14FF0FF3033E0707DF875B07D5A
:104F90003876307D787500F03CF800200CE0707DAC
:104FA000F875B07D3876307D02E0A7F817900020C4
:104FB000787500F02EF84046FFF75AFB07F13800ED
:104FC00000F0F4FB07F10E0000F058FC04A800F01C
:104FD0008EFD308A00F036FEB08900F08FFB284647
:104FE00000F0E6FC704D85F85600FEF754FF6C604B
:104FF000002007B0BDE8F083000600206400002018
:1050000080B5042000F02AFD0220BDE88040FBF7B7
:10501000E2BE002000F038BD80B56348002190F862
:10502000560000F04EFD4FF4C0704FF4C071FEF713
:1050300080FBBDE8804000F057BB00BF00060020A9
:10504000F0B50DF1140C089E01289CE8901010D0CA
:1050500000285FD10CEB0400002E18BF0230202185
:10506000002F18BF182101EBC0004FF47A7148439C
:1050700052E019B9A2F10B00022804D30020012943
:1050800008BF0C2A00D101201425002F18BF0025CD
:10509000A5EB8205002E6FF0070618BF1035072A12
:1050A00005EBCC0528BF08359700002818BF06EB94
:1050B00082070C26072A38BF97003846002DC8BF44
:1050C000284401380C250C2C90FBF7F088BF2646AD
:1050D000571F022F28BF2646072A38BF0E25AC19B6
:1050E0000433023A00FB03408000013090404FF44B
:1050F0007A725043174A515C00220A290CD8DFE823
:1051000001F006101316191B1D0B1F22250041F676
:10511000846201E00122002010440138B0FBF2F06B
:10512000F0BD43F60952F7E747F61222F4E74FF2D3
:105130002442F1E70A4AEFE7084AEDE7064AEBE7BF
:1051400042F6B102E8E745F26112E5E74AF2C3220E
:10515000E2E700BF5476000820A1070090D00300CA
:1051600048E8010010B500F023FC0446FEF758FDA6
:105170002046012100F0A5FCBDE8104000F0E2BC93
:1051800080B50948012190F8560000F09AFC4FF4D0
:10519000D7602D2100F08EFD00F0D9FC0348BDE85A
:1051A000804000F0C1BC00BF00060020FFFF0F00E0
:1051B00000F080BD00F08ABD10B50446FEF707FE82
:1051C000012818BF10BD40F6231000F05BFA00F074
:1051D000F90040EA040140F62310BDE8104000F059
:1051E00069BD0000074940F441700A6822F040029E
:1051F0000A6008604FF4B8504860086840F040000A
:105200000860704700000158B8B54E4C642322680E
:10521000FEF73AFC294B0092009A3AB1009A013A03
:1052200000921A689207F7D5002201E001228260FD
:10523000FF251D7164252468C4EBC404C4F34C44E9
:105240006C430094009C34B1009C013C00941C68A9
:10525000E407F7D001E00122826058680870104628
:10526000B8BD00BF18B5374C64232268FEF70CFCAC
:10527000124B0092009A3AB1009A013A00921A68D1
:105280009207F7D5002201E001228260197121689E
:105290006424C1EBC101C1F34C4161430091009909
:1052A00031B10099013900911968C907F7D001E0BF
:1052B000012282605868104618BD00BF08000158DE
:1052C00081B00179012915D11E49096801EB41011D
:1052D000C1F34F31009109490A6822F400420A6083
:1052E000009A013A0092009A002AF9D10A6842F421
:1052F00000420A6001B000F007B800BF90040058F7
:10530000ED48FDF72BB800BF81B00E496422096853
:1053100001EB4101C1F34B41514300910A490A6835
:10532000009B53B1009B9208013B00930B6802EA7B
:105330005302D207F3D1002002E002218160012054
:1053400001B070471000002014040058E0B500F0D0
:105350007F000DF1070101228DF80700892000F080
:105360009BFC8CBDE0B51A49884204D3E1208DF83E
:105370000600E92023E01749884204D3D7208DF89E
:105380000600DB201BE01449884204D3C1208DF8BD
:105390000600C52013E01149884204D375208DF81A
:1053A000060081200BE00E49884204D36B208DF863
:1053B00006006F2003E029208DF806002B208DF8D1
:1053C00007000DF106019820022200F065FC8CBD5B
:1053D00001E9A43581F8A9328144E52D010B6B1B4D
:1053E00041FC54192DE9F843194C814640F6070059
:1053F0008846A04706464FF4D660A047074600F00F
:105400000F0540F2B160A0473A0740EA0520114974
:1054100048BF0843C6F3C1010FA20123515C06F047
:105420000702013291400D4AB2FBF1F1B1FBF9F2F2
:10543000082A38BF02235A43042A38BF0423594399
:1054400049094843C011C8F80000BDE8F88300BF0F
:105450008556000800F0FFFF04080A0C0048E80128
:1054600060B1074A0021B02907D053580831834260
:10547000F9D9501810F8040C7047FEE71F20704748
:1054800058760008F3484078704700BF1CB50446C2
:105490000DF105011420032200F0E6F8ED488178B3
:1054A0000129217010D009BB9DF805009DF8061058
:1054B0009DF8072020710020A06048424008A0719C
:1054C0005042400860711CBD40689DF80710206183
:1054D0009DF805004042400820739DF90600023007
:1054E0008008607348424008A0731CBD204600211C
:1054F000142201F042FD0F2020701CBD7CB50E4629
:10550000044600200DF1070115468DF807003046CE
:1055100000F04CF83278AA4284BF01207CBD9DF88F
:105520000700214600F092F800207CBD0120704762
:105530007CB50020019040F6E20000F0A3F8144E84
:10554000044600F0FE0140F6E200B04740F6E500F8
:1055500000F098F8054600F07F0140F6E500B047FE
:105560006FF07F4000F038FA01A940F619000422DC
:1055700000F094F8002000F087FA40F6E20021469F
:10558000B04740F6E5002946B04701987CBD00BF12
:10559000B55C0008E0B50DF107011520012200F00F
:1055A00063F89DF80700404240108CBDBCB50C4626
:1055B00005460DF106011320022200F055F8E248DD
:1055C0008178012907D1C078012804D140F2027006
:1055D00000F058F801E09DF8060028709DF80700DB
:1055E0002070BCBD10B508B1EF498860FDF782FF9F
:1055F0000220FFF7E1FDEC4C00202070002000F0BD
:1056000043FAFEF7E6FB01280CD10120402100F00F
:1056100077FA40F61110002100F04CFB7F20FFF7D5
:1056200095FE09E040F61110202100F043FB40F602
:105630001210202100F03EFB40F61F100E2100F05A
:1056400039FBFEF7C2FB0120607010BD10B5FEF7FC
:10565000A6F9EFF31084EFF3108072B61648FCF74A
:1056600045FF84F3108810BD10B5FEF798F9EFF3ED
:105670001084EFF3108072B60F48FCF705FE84F338
:10568000108810BDE0B501460B480DF1070201235B
:10569000FCF758FF9DF807008CBD00BF10B5FEF762
:1056A0007EF9EFF31084EFF3108072B60248FCF736
:1056B00049FF84F3108810BD5007002010B5144630
:1056C00000F044F92046BDE8104000F02DBAE0B5E6
:1056D0008DF807108DF806000DF106018F200222CB
:1056E00000F0DAFA8CBD000080B5C5200021002250
:1056F00000F0D2FAED480721417080BDE0B540BA14
:10570000ADF80600E948807800B18CBD0DF10601C6
:1057100040F2BE60022200F0D9FA8CBDE0B540BA7A
:10572000ADF80600E148807800B18CBD0DF10601AE
:1057300040F2BC60022200F0C9FA8CBDE0B58DF8E1
:105740000520120A8DF80310090A8DF80100000ADD
:105750008DF807301B0A8DF804208DF802108DF8A3
:1057600000006946082008228DF8063000F094FAFF
:105770008CBDE0B58DF807000DF10701A020FEF704
:105780009CF89DF8070040280ED341080020CAB2BB
:10579000202A02D301309108F9E700EBC100C1B221
:1057A00040F2067000F086FA8CBD00001CB5E4499A
:1057B00004460020CDE9000020788978814202D09B
:1057C00000F0B0F82178032942D8DFE801F0022286
:1057D000262DA089204A0023ADF80300D4E9010159
:1057E000B2FBF0F0020A8DF80200000C8DF80120E7
:1057F0006E4A8DF800004806C909FAF7B9FC010A9B
:105800008DF80700000C08228DF806108DF80500B1
:105810001AE0A0690422009016E0207D0E490422BF
:105820008DF80300206905E0A0890B490522ADF839
:1058300003006068B1FBF0F0010A8DF80200000C73
:105840008DF801108DF8000069468B2000F024FAD5
:105850001CBD00BF980000200000093DE0B58DF898
:1058600006208DF804008DF807308DF8051001A989
:105870009520042200F010FA8CBD00007FB5B04DD9
:10588000044600208DF80C00CDE901002078A978AD
:10589000814202D000F046F82178032940D8DFE8A1
:1058A00001F0020D1A02667AF12E19D0F22E21D1E2
:1058B000062641F2210541F60F5016E0207C617C5E
:1058C0000622E8708DF806008DF80710608AADF8A2
:1058D0000800E0891CE0207B01228DF804001BE019
:1058E000022648F205054FF6FF70FFF717FF28461E
:1058F000FFF704FF20798DF80B6009228DF8060070
:10590000D4F80500CDF80700A07A8DF80C00608867
:1059100000BA000CADF8040001A98C2000F0BCF91D
:105920007FBD00BFE0B5D4498DF80700887020B96D
:1059300040F2AC60002100F0BDF90DF107018A20B2
:10594000FDF7BBFF8CBD00BF980000200A46014652
:10595000002000F093B9E0B5FEF739FA01380DF1F7
:1059600007010122B0FA80F040098DF80700962067
:1059700000F092F98CBD0000BCB5BF4D04462878FC
:1059800020B92046FFF7EEFC01202870074A600688
:10599000E1090023FAF7ECFB00BA0422019001A907
:1059A000862000F079F9BCBD980000200048E8018D
:1059B000B0B50446FEF707FA022805D0012520B944
:1059C0000F2CC8BF022500E00225284621460222EE
:1059D00000F0C2F82846B0BDE0B5A7490522FDF7A2
:1059E00058FE0DF10501822000F056F98CBD00BF74
:1059F0001CB50446A0480521417040F6AC00972133
:105A000000F058F9200A0DF1050103228DF8074036
:105A10008DF80600200C8DF80500822000F03CF97E
:105A20001CBD00BF1CB50A0A8DF80710090C8DF8C3
:105A3000040006248DF80510010A000C8DF80620DC
:105A400006228DF803108DF802000DF1020194205A
:105A500000F022F9884844701CBD00BFBCB5044664
:105A600000200025FEF7ABF90220FFF7A5FB04F0AC
:105A700007000DF1070101228DF80700842000F0D6
:105A80000BF97D484570BCBDE0B58DF807000DF100
:105A900007018020FDF711FF9DF807100220002963
:105AA000754908BF012048708CBD00BF98000020D8
:105AB000E0B58DF807000DF107019F20FDF7FDFE11
:105AC0008CBD012908D110B50446012807D1042056
:105AD000FFF772FB022003E00120FEF770B90120FE
